:2000000038C3000067C3000065C3000063C3000061C300005FC300005DC300005BC30000E9
:2000200059C3000057C3000055C3000053C300000C94E4104FC300004DC300004BC3000098
:2000400049C3000047C3000045C3000043C3000041C300003FC300003DC300000C94830C47
:2000600039C300000C94F60C0C94CD0C33C3000031C300002FC300002DC300002BC30000AF
:2000800029C3000027C3000025C3000023C3000021C300001FC300001DC300001BC3000038
:2000A00019C3000017C3000015C3000013C3000011C300000FC300000DC300000BC3000098
:2000C00009C3000007C3000005C3000003C3000001C30000FFC20000FDC20000FBC20000FB
:2000E000F9C20000D202D202D202F702FF020E03D202D202F702FF02B50DB80DA70DAB0D29
:20010000AF0DEF0DBC0DC00DC60DCA0DCE0DD40DD80DDC0DEF0DE20DE60DEA0D290E2E0E15
:20012000330E3D0E470EC00E510E590E610E6B0E750E7F0E8E0E980EC00EA20EAC0EB60E14
:200140006364696E6F70737578585B0000000A0B02090C0D0E0807030401000000000000B1
:2001600000000000000000000000000000000000000000000000000012111000000000004C
:2001800000000000000000000000000000000000000000002200250028002B002E00310066
:2001A000340002010000050108010B0100002100240027002A002D003000330001010000C5
:2001C000040107010A0105050505070508080808020202020A0A0808040404040101010187
:2001E000010101010303030303030303040707070C0C0C0C0C0C0C0C02020202060606064A
:20020000060606060B0B0B0B0B0B0B0B010210202008081020401020408002010201080499
:2002200002010102040810204080804020100804020180040201804020100804020108042B
:2002400002010102040810204080010204081020408080917F0C882309F10FB6F8940F926A
:20026000E0915A0DF0915B0DC681D781CE0102960E94E61080918F0D815080938F0D8091E1
:200280007F0C815080937F0C0F900FBE8F89988D0E944813CE010E944813DBCF8091670DC3
:2002A000823010F00E942B110E942A0CD2CFCF93DF93CDB7DEB72C970FB6F894DEBF0FBECA
:2002C000CDBFE091840CF091850C8081FF24F394882339F0F12C0580F681E02D00811181C7
:2002E00002C000E010E00E9493100E947F136C018091800C9091810CC816D90620F40E94C8
:20030000B21381E001C080E0D092810CC092800C811179C0F11035C0C016D106D0F10E94F8
:20032000F011E091840CF091850C0580F681E02DE680F780C70102960E94E610D70152960B
:200340008C91529782FF12C01C966D917C911D97600F711F9801A601C7010E9489138823E3
:2003600041F0B801C7010E94A01803C08E7FF701828BD7015096ED91FC915197C701199575
:20038000D3C0E091820CF091830C8081BB24B3948111B12CE090A60CF090A70C0FB6F8947F
:2003A0000F92F701858D8F3F09F4158ED7015E968C915E978F3F11F45E961C920F900FBE65
:2003C000F701828D811115C060918D0D70918E0D645F7F4FC70141960E940A11B11004C016
:2003E000C8018C199D0902C08FEF9FEF6B2D0E94FC13C7010E94A4100E94F011811194C02B
:200400000E942B1191C00E94F0118EC0911109C08091AA0C8E838091A80C9091A90C9887BF
:200420008F830F900FBE0E9493100FB6F8940F92F801858D8F3F09F4158ED8015E968C91A4
:200440005E978F3F11F45E961C920F900FBEBE01675F7F4FCE0106960E945F148111FCC0A5
:20046000C8010E949910882309F4F0C0E984FA8460918D0D70918E0D645F7F4FC6010E9404
:20048000021361E0C7010E94FC13C8010E94A4100E94F011882309F4D6C091E00FB6F894CB
:2004A0000F92D8015A96FC905A97FF2009F4C3C05C964C915C97411143C0FA94D8015A9648
:2004C000FC925A9718968C9181115BC00F900FBEF980F7FC29C00C811D81D8011A968D9192
:2004E0009C911B97892B21F0C80102960E94E6100E947F13AC018091800C9091810C4817D4
:20050000590730F44B875C870E94B2135C854B855093810C4093800C8F2DFF0C990BAA0B9B
:20052000BB0B8A309105B8F10091A60C1091A70C1A86198690E06801F1E1CF0ED11CAECF34
:2005400050E016968D919C911797840F951F17969C938E93169714962D913C91159782175B
:20056000930738F08D919C91119717969C938E931697F80166817781CE0101960E94741CAC
:200580009CCFC80108960E949514882309F49ECF0E942B119BCFFC018827EE58FF4F8F4FC3
:2005A0000C94271BF80182898160828BEA80FB80648575856E0D7F1D9701C8010E948913E9
:2005C000882309F4B1CFD8015096ED91FC915197C8011995F801828982FFA6CF84859585AD
:2005E000B701680F791FC8010E94A0189DCFD80152968C9152978E7F52968C9395CFF8016D
:2006000082898160828B6A817B8175876487640F751F9A01C8010E94891386CFD801529654
:200620008C9181FD04C0C8010E9448137DCF8E7FF801828B79CF29853A85232B09F0E6CE86
:200640000F900FBE3ECE0E942B1127CFC8010E94A4100E94F01121CFC8010E94A4100E94DB
:20066000F011C8010E949910882309F416CF29CE081611241FBECFEFD1E2DEBFCDBF00E037
:200680000CBF12E0A0E0B2E0E6EBFFE300E00BBF02C007900D92A63AB107D9F72DE0A6EA31
:2006A000B2E001C01D92A73AB207E1F713E0C9E3D3E000E006C021970109802FFE010E94BC
:2006C000271BC833D10780E00807A9F70E94D2140C94D91F95CCC091570CD091580C8E016D
:2006E000000F111F000F111F09501D4F20E030E040EA50E4F80160817181828193810E94C4
:200700008A199B01AC016091630C7091640C8091650C9091660C0E9425196B017C018BE3D0
:200720000E94640C092E000CAA0BBB0B9C01AD012659310941095109ACE9BFEF0E94F01854
:2007400026E930E040E050E00E94C818CA01B9016C597F4F8F4F9F4F0E94251AF801608307
:2007600071838283938320E030E040EA50E40E948A199B01AC01C701B6010E9426196B01A2
:200780007C016093630C7093640C8093650C9093660C8091000290910102BC01990F880BBF
:2007A000990B0E94251A9B01AC01C701B6010E9425190E94F2196530710514F064E070E0BC
:2007C0006C3FFFEF7F0714F46CEF7FEF7093EC026093EB027B0177FF04C0EE24FF24E61A6D
:2007E000F70A072E000C880B990B0E94251A2AE939E949E150E40E94B11A4B015C01B7013E
:200800000F2C000C880B990B0E94251A9B01AC01C501B4010E94B11A4B015C01B701615036
:200820007109072E000C880B990B0E94251A9B01AC01C501B4010E94B11A0E94F2196B019B
:200840007C0187E9C816D104E104F1042CF026E9C22ED12CE12CF12CEAE6CE16EFEFDE0666
:20086000EE06FE0634F49AE6C92EDD24DA94ED2CFD2CC092D302D092D402E092D502F09206
:20088000D60246015701F7FE07C08824992454018C189D08AE08BF08B40189E00E94030ED0
:2008A00026013701440C551C661C771CC701B601680D791D8A1D9B1DA30192010E94C81861
:2008C000622F89E20E94860DC501B4016C197D098E099F09A30192010E94C818622F88E26E
:2008E0000E94860DC430D10534F42196D093580CC093570CF0CE1092580C1092570CEBCE1B
:20090000CF93DF9300D000D0CDB7DEB7412C512C320167E0362E8091610C9091620C9E8354
:200920008D838C01000F111F000F111F0953154F20E030E040EA50E4D8016D917D918D916B
:200940009C910E948A199B01AC016091770C7091780C8091790C90917A0C0E9425196B015A
:200960007C0189E3B1D7092E000CAA0BBB0B9C01AD012054314041095109A4EBB0E00E94B3
:20098000E4182EEA31E040E050E00E94C818CA01B9010E94251AF80160837183828393830F
:2009A00020E030E040EA50E40E948A199B01AC01C701B6010E9426196B017C016093770C7C
:2009C0007093780C8093790C90937A0C60910A0270910B02072E000C880B990B0E94251AEB
:2009E0009B01AC01C701B6010E9425190E94F2198B01072E000C220B330B400E511E621E2D
:200A0000731E6830710514F067E070E0693FFFEF7F0714F469EF7FEF7093F6026093F502CD
:200A2000CB0177FF04C088279927861B970B369E9001379E300D1124289FA001299F500DC5
:200A4000389F500D11240197489FB001499F700D589F700D1124072E000C880B990B0E94D5
:200A6000251A6B017C01C301B2010E94251A20E030E0A9010E94B11A9B01AC01C701B60107
:200A80000E9426190E94F2196B017C018BEFC816D104E104F1042CF04AEFC42ED12CE12C87
:200AA000F12C96E0C9169FEFD906E906F90634F436E0C32EDD24DA94ED2CFD2CC092E7024E
:200AC000D092E802E092E902F092EA0246015701F7FE07C08824992454018C189D08AE08E7
:200AE000BF08B4018BE00E94030ED701C601880F991FAA1FBB1F89839A83AB83BC83C7016D
:200B0000B601680D791D8A1D9B1D29813A814B815C810E94C818622F84E2F8D7C501B401E3
:200B20006C197D098E099F0929813A814B815C810E94C818622F85E2E9D7AD81BE8114970B
:200B400044F48D819E8101969093620C8093610CE2CE1092620C1092610CDDCEC0915F0C52
:200B6000D091600C8E01000F111F000F111F095C164F20E030E040EA50E4F8016081718197
:200B8000828193810E948A199B01AC016091730C7091740C8091750C9091760C0E942519AA
:200BA0006B017C018AE390D6092E000CAA0BBB0B9C01AD012054314041095109A4EBB0E0C8
:200BC0000E94E4182EEA31E040E050E00E94C818CA01B9010E94251AF80160837183828341
:200BE000938320E030E040EA50E40E948A199B01AC01C701B6010E9426196B017C016093A7
:200C0000730C7093740C8093750C9093760C8091080290910902BC01990F880B990B0E9414
:200C2000251A9B01AC01C701B6010E9425190E94F2196530710514F064E070E06C3FFFEFE4
:200C40007F0714F46CEF7FEF7093F4026093F302CB0177FF04C088279927861B970B9B0108
:200C6000220F331F620F731F689F9001699F300D789F300D11240197289F6001299FD00C24
:200C8000389FD00C11240D2C000CEE08FF0887E9C816D104E104F1042CF096E9C92ED12C9E
:200CA000E12CF12CC092E302D092E402E092E502F092E60246015701F7FE07C08824992404
:200CC00054018C189D08AE08BF08B4018CE09BD726013701440C551C661C771CC701B601B2
:200CE000680D791D8A1D9B1DA30192010E94C818622F82E20BD7C501B4016C197D098E09DD
:200D00009F09A30192010E94C818622F83E2FED6C430D10534F42196D093600CC0935F0C72
:200D20001DCF1092600C10925F0C18CFC0915D0CD0915E0C8E01000F111F000F111F0955D5
:200D4000184F20E030E048EC52E4F80160817181828193810E948A199B01AC0160916F0CD5
:200D60007091700C8091710C9091720C0E9425196B017C0188E3A8D5092E000CAA0BBB0B5A
:200D80009C01AD012156310941095109A4EBB0E00E94E41825E232E040E050E00E94C8180B
:200DA000CA01B9016A557109810991090E94251AF801608371838283938320E030E048EC41
:200DC00052E40E948A199B01AC01C701B6010E9426196B017C0160936F0C7093700C809306
:200DE000710C9093720C8091060290910702BC01990F880B990B0E94251A9B01AC01C70104
:200E0000B6010E9425190E94F2196530710514F064E070E06C3FFFEF7F0714F46CEF7FEFFB
:200E20007093F2026093F102CB0177FF04C088279927861B970B660F771F689F9001699F72
:200E4000300D789F300D11240197289F6001299FD00C389FD00C11240D2C000CEE08FF083E
:200E600087E9C816D104E104F1042CF096E9C92ED12CE12CF12CC092DF02D092E002E092D3
:200E8000E102F092E20246015701F7FE07C08824992454018C189D08AE08BF08B4018AE00B
:200EA000B2D626013701440C551C661C771CC701B601680D791D8A1D9B1DA30192010E94B3
:200EC000C818622F86E222D6C501B4016C197D098E099F09A30192010E94C818622F87E2C9
:200EE00015D6C336D10534F42196D0935E0CC0935D0C1CCF10925E0C10925D0C17CF17E0F1
:200F0000C0915B0CD0915C0CCE01880F991F880F991FFC01E95EF94F7F0120E030E048EC93
:200F200052E460817181828193810E948A199B01AC0160916B0C70916C0C80916D0C909177
:200F40006E0C0E9425194B015C0187E3BDD4092E000CAA0BBB0B9C01AD012655310941098B
:200F60005109A4EBB0E00E94E41826E232E040E050E00E94C818CA01B9010E94251AF70110
:200F8000608371838283938320E030E048EC52E40E948A199B01AC01C501B4010E942619FB
:200FA0006B017C0160936B0C70936C0C80936D0C90936E0C8091040290910502BC01990F96
:200FC000880B990B0E94251A9B01AC01C701B6010E9425190E94F2196530710514F064E051
:200FE00070E06C3FFFEF7F0714F46CEF7FEF7093F0026093EF02CB0177FF04C08827992763
:20100000861B970B169FA001179F500D1124489F9001499F300D589F300D11240197289F8A
:201020006001299FD00C389FD00C11242AE6C2162FEFD20684F00D2C000CEE08FF0827E91F
:20104000C216D104E104F10464F056E9C52ED12CE12CF12C06C04AE6C42EDD24DA94ED2CEC
:20106000FD2CC092DB02D092DC02E092DD02F092DE0246015701F7FE07C08824992454010C
:201080008C189D08AE08BF08B4018DE0BCD526013701440C551C661C771CC701B601680DAE
:2010A000791D8A1D9B1DA30192010E94C818622F80E22CD5C501B4016C197D098E099F09C9
:2010C000A30192010E94C818622F81E21FD5C336D10534F42196D0935C0CC0935B0C10CF5D
:2010E00010925C0C10925B0C0BCF16E0C091590CD0915A0CCE01880F991F880F991FFC0126
:20110000E957FB4F7F0120E030E048EC52E460817181828193810E948A199B01AC016091E2
:20112000670C7091680C8091690C90916A0C0E9425194B015C0186E3C7D3092E000CAA0B26
:20114000BB0B9C01AD012954314041095109AAE5B0E00E94E41825E131E040E050E00E9426
:20116000C818CA01B9010E94251AF701608371838283938320E030E048EC52E40E948A1980
:201180009B01AC01C501B4010E9426196B017C016093670C7093680C8093690C90936A0CC3
:2011A0008091020290910302BC01990F880B990B0E94251A9B01AC01C701B6010E942519CF
:2011C0000E94F2196530710514F064E070E06C3FFFEF7F0714F46CEF7FEF7093EE026093E9
:2011E000ED02CB0177FF04C088279927861B970B169FA001179F500D1124489F9001499F4A
:20120000300D589F300D11240197289F6001299FD00C389FD00C112421E0C2162FEFD2060D
:201220000CF453C00D2C000CEE08FF082FEFC216D104E104F10429F024F0C12CD12C760126
:20124000CA94C092D702D092D802E092D902F092DA0246015701F7FE07C088249924540105
:201260008C189D08AE08BF08B40188E0CCD426013701440C551C661C771CC701B601680DC2
:20128000791D8A1D9B1DA30192010E94C818622F8AE23CD4C501B4016C197D098E099F09CE
:2012A000A30192010E94C818622F8BE22FD4C336D10534F42196D0935A0CC093590C16CF60
:2012C00010925A0C1092590C11CFCC24C394DD24DA94ED2CFD2CB5CFE091BB0CF091BC0C22
:2012E00082E08083E091B70CF091B80C1082E091B90CF091BA0C8FEC80831092C30CE091A1
:20130000BF0CF091C00C86E08083E091BD0CF091BE0C808180618083E091BD0CF091BE0C5D
:20132000808188608083E091BD0CF091BE0C808180688083E091BD0CF091BE0C80818F7DBE
:20134000808384E292E0C2D387E392E0BFD389E492E0BCD338EA232E32E0332E46E0842E83
:2013600042E0942EC4E0D2E002E012E05DE5A52E52E0B52E1092AB021092AC021092AD0245
:201380001092AE021092AF022BEAE22E22E0F22E8BEA9CE0C2D1892BD9F38BEA9CE09BD100
:2013A0008093AA02D7018D937D018A3039F08D3029F0B3EDEB16B2E0FB0651F7A0E0B2E0B1
:2013C000BF93AF93A6EAB2E0BF93AF933F922F929F928F92DF93CF931F930F93BF92AF9225
:2013E000ABEAB2E0BF93AF930E94841C80910002909101022DB73EB7205F3F4F0FB6F89482
:201400003EBF0FBE2DBF8536910514F084E690E097FF02C080E090E0909301028093000284
:2014200080910202909103028637910514F085E790E088383FEF930714F488E89FEF90938D
:201440000302809302028091040290910502853B910514F084EB90E097FF02C080E090E0D0
:20146000909305028093040280910602909107028B35910514F08AE590E0863AAFEF9A07AE
:2014800014F486EA9FEF90930702809306022091A8023091A902253B310514F024EB30E07F
:2014A00037FF02C020E030E03093A9022093A802E091A602F091A7024BEF42037001439F44
:2014C000F00C1124C7016AEF7FEF0E94141B3B01B2ED6B1A7108E615F7056CF0C70166E041
:2014E00070E00E94141B3B0182ED680E711CE615F7050CF43F019BE5691671041CF09AE5E7
:20150000692E712CA6EA6A16AFEF7A0624F486EA682E77247A947092A7026092A602B901A3
:20152000330F880B990B0E94251A6B017C01B301770C880B990B0E94251A23E333E343E3D7
:2015400050E40E94B11A20E030E040E05FE30E94B11A2B013C019B01AC01C701B6010E9438
:2015600026190E94F2197093090260930802A3019201C701B6010E9425190E94F21970932E
:201580000B0260930A028BEA92E0A0D2F3CE0F931F93E1E8F0E08081887F80838081856047
:2015A00080838AE274D28BE272D280E270D281E26ED286E26CD287E26AD282E268D283E230
:2015C00066D284E264D285E262D289E260D288E25ED200E010E021E040E850E06FE672E095
:2015E0008CE699E00E94231721E040E850E068E772E085E798E00E94231721E040E850E011
:201600006EE772E08FE797E00E94231721E040E850E064E872E086E996E00E94231721E0A1
:2016200040E850E06AE872E08EEA95E00E94231721E040E850E060E972E080E894E00E9473
:20164000231721E040E850E068E572E08BE693E00E9423171F910F910895CF92DF92EF9258
:20166000FF920F931F93CF93DF936C017A018B01C0E0D0E0CE15DF0589F0D8016D918D0148
:20168000D601ED91FC910190F081E02DC6011995892B11F47E0102C02196ECCFC701DF9140
:2016A000CF911F910F91FF90EF90DF90CF900895089580E090E00895FC01538D448D252FF5
:2016C00030E0842F90E0821B930B541710F0CF96089501970895FC01918D828D981761F0D0
:2016E000828DDF01A80FB11D5D968C91928D9F5F9F73928F90E008958FEF9FEF0895FC0163
:20170000918D828D981731F0828DE80FF11D858D90E008958FEF9FEF0895FC01918D228D26
:20172000892F90E0805C9F4F821B91098F73992708958BEA9CE0F1DF21E0892B09F420E0AE
:20174000822F0895FC01848DDF01A80FB11DA35ABF4F2C91848D90E001968F739927848F13
:20176000A689B7892C93A089B1898C9180648C93938D848D981306C00288F389E02D808102
:201780008F7D80830895EF92FF920F931F93CF93DF93EC0181E0888F9B8D8C8D981305C04D
:2017A000E889F989808185FD23C0F62E0B8D10E00F5F1F4F0F731127E02E8C8DE8120BC0A2
:2017C0000FB607FCFACFE889F989808185FFF5CFCE01B8DFF2CF8B8DFE01E80FF11DE35ABC
:2017E000FF4FF0820B8FEA89FB898081806207C0EE89FF896083E889F98980818064808331
:2018000081E090E0DF91CF911F910F91FF90EF900895CF93DF93EC01888D8823C1F0EA8987
:20182000FB89808185FD05C0A889B9898C9186FD0EC00FB607FCF5CF808185FFF2CFA889F8
:20184000B9898C9185FFEDCFCE017CDFE8CFDF91CF91089580E090E0892B19F06ADF811133
:2018600025C080E090E0892B41F080E090E0892B21F00E94000081111CC080E090E0892BA5
:2018800041F080E090E0892B21F00E940000811113C080E090E0892BA1F080E090E0892BE2
:2018A00081F00E94000081110AC008950E940000D8CF0E940000E1CF0E940000EACF0C9486
:2018C000000008950E94701C863308F0865390917B00282F2870977F922B90937B008770C0
:2018E000806480937C0080917A00806480937A0080917A0086FDFCCF8091780020917900ED
:2019000090E0922B08951F920F920FB60F9211242F933F938F939F93AF93BF938091A10CD6
:201920009091A20CA091A30CB091A40C3091A00C23E0230F2D3720F40196A11DB11D05C005
:2019400026E8230F0296A11DB11D2093A00C8093A10C9093A20CA093A30CB093A40C80914D
:201960009C0C90919D0CA0919E0CB0919F0C0196A11DB11D80939C0C90939D0CA0939E0CA7
:20198000B0939F0CBF91AF919F918F913F912F910F900FBE0F901F9018951F920F920FB66B
:2019A0000F9211240BB60F922F933F934F935F936F937F938F939F93AF93BF93EF93FF9377
:2019C0008BEA9CE0BFDEFF91EF91BF91AF919F918F917F916F915F914F913F912F910F907A
:2019E0000BBE0F900FBE0F901F9018951F920F920FB60F9211240BB60F922F938F939F9352
:201A0000EF93FF93E091BB0CF091BC0C8081E091C10CF091C20C82FD12C090818091C40C60
:201A20008F5F8F732091C50C821751F0E091C40CF0E0E555F34F958F8093C40C01C0808104
:201A4000FF91EF919F918F912F910F900BBE0F900FBE0F901F901895E0914A0DF0914B0DF6
:201A60008081811103C08FEF9FEF0CC0E0914A0DF0914B0D0580F681E02D0680F781E02D83
:201A80008281938190937E0C80937D0C089590E0FC01E45FFD4F2491FC01EA53FE4F8491FC
:201AA000882399F090E0880F991FFC01E455FE4FA591B491FC01EE56FE4F859194918FB726
:201AC000F894EC91E22BEC938FBF0895CF93DF93009771F0FC0101900020E9F73197AF01B4
:201AE000481B590BBC018BEA9CE0B7DDEC0102C0C0E0D0E042E050E063EA72E08BEA9CE0FC
:201B0000ACDD8C0F9D1FDF91CF910895362F90E0FC01E45BFE4F4491FC01E45FFD4F249104
:201B2000FC01EA53FE4F9491992309F46BC0442309F455C050E0FA013197E231F10508F0A8
:201B40004EC08827E458FF4F8F4F0C94271B809180008F7707C0809180008F7D03C08091AF
:201B60008000877F809380003AC084B58F7702C084B58F7D84BD33C08091B0008F7703C04E
:201B80008091B0008F7D8093B00029C0809190008F7707C0809190008F7D03C0809190004D
:201BA000877F809390001BC08091A0008F7707C08091A0008F7D03C08091A000877F8093D9
:201BC000A0000DC0809120018F7707C0809120018F7D03C080912001877F80932001E92F14
:201BE000F0E0EE0FFF1FEE56FE4FA591B4918FB7F894EC91311103C020952E2301C02E2B7A
:201C00002C938FBF08951F93CF93DF93182FEB013EDF209711F460E004C0CF3FD10531F47B
:201C200061E0812FDF91CF911F9170CFE12FF0E0E45BFE4FE4914E2F50E0FA013197E23190
:201C4000F10508F09DC08827E257FF4F8F4F0C94271B84B5806884BDC7BD97C084B58062EB
:201C600084BDC8BD92C080918000806880938000D0938900C093880088C0809180008062BE
:201C800080938000D0938B00C0938A007EC080918000886080938000D0938D00C0938C00CD
:201CA00074C08091B00080688093B000C093B3006CC08091B00080628093B000C093B400E5
:201CC00064C080919000806880939000D0939900C09398005AC0809190008062809390008D
:201CE000D0939B00C0939A0050C080919000886080939000D0939D00C0939C0046C08091B7
:201D0000A00080688093A0008091A0008F7B8093A000D093A900C093A80037C08091A0006B
:201D200080628093A000D093AB00C093AA002DC08091A00088608093A000D093AD00C09367
:201D4000AC0023C080912001806880932001D0932901C093280119C080912001806280939D
:201D60002001D0932B01C0932A010FC080912001886080932001D0932D01C0932C0105C042
:201D8000C038D1050CF04CCF46CFDF91CF911F9108950F920FB6F8940F920BB60F920CB675
:201DA0000F921F9211242F923F924F925F926F927F928F929F92AF92BF92CF92DF92EF92EF
:201DC000FF920F931F932F933F934F935F936F937F938F939F93AF93BF93CF93DF93EF9364
:201DE000FF93A0918D0DB0918E0D0DB60D920EB60D9213BE8091A50C8111F3C08091A80C48
:201E00009091A90C01969093A90C8093A80C009799F520914A0D30914B0D4091480D509169
:201E2000490D50934B0D40934A0D3093490D2093480D2091AA0C2F5F2093AA0CE0914A0DA0
:201E4000F0914B0D2081211107C02FEF3FEF30937E0C20937D0C10C0E0914A0DF0914B0DC9
:201E60000580F681E02D0680F781E02D2281338130937E0C20937D0C20917D0C30917E0CE9
:201E80008217930710F420E09CC020E019E0E0914A0DF0914B0D3081311107C08FEF9FEF4F
:201EA00090937E0C80937D0C8CC0E0914A0DF0914B0D0580F681E02D0680F781E02D428115
:201EC00053818417950728F450937E0C40937D0C78C0AF014E5F5F4FA285B3856481758195
:201EE000E680F780EB01FD82EC82C681D7817B836A8311966D917C9112976417750721F43B
:201F00001296DC93CE931197138612863C9131503C933C91A489B5891097F9F066857785A4
:201F2000E088F188EB01FD82EC82C089D1897B836A831196ED90FC901297BF01645F7F4FAF
:201F4000E616F70621F41296DC93CE931197158A148A3C9131503C933C91A68930918B0DA4
:201F60003A1710F4A0938B0D1A9FD0011124BD016959724F7B01DB011196CD91DC911297CE
:201F8000D583C4836C817D81778366836C817D81DB0113965C934E9312975D834C83F386C3
:201FA000E286E70138813F5F3883A0918D0DB0918E0D468956963C91431708F468CF21E002
:201FC00066CFE0918D0DF0918E0DE689D9E0ED9FF0011124E959F24F8081823040F021E064
:201FE00006C080917B0C8F5F80937B0C20E080917C0C811103C0222309F466C08091A50CE3
:20200000882321F081E080937C0C5EC010927C0CA0918D0DB0918E0DE0918D0DF0918E0DF2
:202020002D913C918789908D82179307A8F080918D0D90918E0D80918D0D90918E0D279A8E
:202040002F9A2FEF67EA71E6215060407040E1F700C000001F9AF5CF80918B0D69E001C068
:202060008150482F50E0649F9001659F300D1124F901E959F24F9081992391F3A181B281BB
:2020800012960D90BC91A02DB283A1832659324FA217B30731F412962D913C91139732835E
:2020A000218399E0949FF001959FF00D1124E959F24F0180F281E02D2681378130938E0D38
:2020C00020938D0D80938B0DA0918D0DB0918E0DCD91CDBFDD91DEBFFF91EF91DF91CF918C
:2020E000BF91AF919F918F917F916F915F914F913F912F911F910F91FF90EF90DF90CF9064
:20210000BF90AF909F908F907F906F905F904F903F902F901F900F900CBE0F900BBE0F905A
:202120000FBE0F9008958091A50C8F5F8093A50C08950FB6F8940F92FC01928D0F900FBE0B
:2021400081E0911180E00895EF92FF920F931F93CF93DF93EC010FB6F8940F921E8D7C013E
:2021600081E1E80EF11C01E0111654F48989882339F0C701DAD3811100937C0C1150F4CF7E
:202180008FEF8E8F0F900FBE0FB6F8940F921D8D7E0188E0E80EF11C01E0111654F4888555
:2021A000882339F0C701C1D3811100937C0C1150F4CF8FEF8D8F0F900FBEDF91CF911F9198
:2021C0000F91FF90EF900895E4DD1895CF93DF93FC01A085B1858281938124813581EC01BB
:2021E0003D832C83C481D5819B838A8311968D919C9112978E179F0721F41296DC93CE9337
:202200001197118610868C9181508C938C91DF91CF910895CF93DF939C01FB01DC01119661
:20222000CD91DC911297D383C2838C819D81958384838C819D81DC0113967C936E931297DB
:202240007D836C8331872087F90180818F5F8083DF91CF9108950F920FB6F8940F920BB683
:202260000F920CB60F921F9211242F923F924F925F926F927F928F929F92AF92BF92CF92B9
:20228000DF92EF92FF920F931F932F933F934F935F936F937F938F939F93AF93BF93CF93A1
:2022A000DF93EF93FF93A0918D0DB0918E0D0DB60D920EB60D928091A50C882321F081E04D
:2022C00080937C0C5EC010927C0CA0918D0DB0918E0DE0918D0DF0918E0D2D913C918789B2
:2022E000908D82179307A8F080918D0D90918E0D80918D0D90918E0D279A2F9A2FEF87EA0F
:2023000091E6215080409040E1F700C000001F9AF5CF80918B0D69E001C08150482F50E005
:20232000649F9001659F300D1124F901E959F24F9081992391F3A181B28112960D90BC91DE
:20234000A02DB283A1832659324FA217B30731F412962D913C9113973283218399E0949FDD
:20236000F001959FF00D1124E959F24F0180F281E02D2681378130938E0D20938D0D809365
:202380008B0DA0918D0DB0918E0DCD91CDBFDD91DEBFFF91EF91DF91CF91BF91AF919F9169
:2023A0008F917F916F915F914F913F912F911F910F91FF90EF90DF90CF90BF90AF909F90A4
:2023C0008F907F906F905F904F903F902F901F900F900CBE0F900BBE0F900FBE0F9008954C
:2023E0008F929F92AF92BF92CF92DF92EF92FF920F931F93CF93DF930FB6F8940F928091EA
:20240000A50C81508093A50C8091A50C882311F080E0E9C080918F0D8823D1F3C0E0D0E093
:2024200029E0F22EEE24E39480915E0D882339F1E091630DF091640DC681D781CE010C96B6
:20244000C5DE8E010E5F1F4FC801C0DE9E8980918B0D891710F490938B0DF99EC00111244C
:20246000B8018959924FD6DEE0918D0DF0918E0D9E8986899817C0F2E0927C0CD5CFCD2BD8
:2024800009F0EADAE0907B0CEE2009F4A5C089E0B82EAA24A394CC24CA94DC2C8091A50CAC
:2024A000811188C0C091A80CD091A90C2196D093A90CC093A80C2097B1F480914A0D90916C
:2024C0004B0D2091480D3091490D30934B0D20934A0D9093490D8093480D8091AA0C8F5FCC
:2024E0008093AA0CB9DA80917D0C90917E0CF12CC817D90708F44EC0E0914A0DF0914B0DB4
:202500008081811105C0D0927E0CC0927D0C42C0E0914A0DF0914B0D0580F681E02D068169
:202520001781D80112968D919C911397C817D90728F490937E0C80937D0C2CC04801B2E0A2
:202540008B0E911CC40142DEF80184899589892B19F0C8010C963ADED80156968C919091E9
:202560008B0D981710F480938B0DB89EC0011124B4018959924F4EDEE0918D0DF0918E0D4E
:20258000D80156969C918689981708F4B5CFFF24F394B2CFE0918D0DF0918E0DE689BE9EEE
:2025A000F0011124E959F24F8081823048F0FF24F39406C080917B0C8F5F80937B0CF12CDA
:2025C00080917C0C811101C0F110A0927C0CEA94E11064CF10927B0C80917C0C882309F448
:2025E00017CF39DE81E00F900FBEDF91CF911F910F91FF90EF90DF90CF90BF90AF909F9058
:202600008F9008950F931F93CF93DF938C01FB01808191818F3F2FEF920721F4E801AF8187
:20262000B8850EC0D801139612962D913C911397E901488159818417950710F0D901F4CFCF
:2026400012968D919C91139793838283EC01FD83EC83B583A4831396FC93EE93129711878D
:202660000087F80180818F5F8083DF91CF911F910F910895FC010396928381832FEF3FEF30
:2026800034832383968385839087878310820895CF93DF93009741F0EC0145DDCE010E9450
:2026A000D81BDF91CF919CCEDF91CF9108950F931F93CF93DF931F921F92CDB7DEB78983D1
:2026C0009A8331DD89819A81DED78C0189DE0115110569F4279A2F9A2FEF80E792E0215086
:2026E00080409040E1F700C000001F9AF5CFC8010F900F90DF91CF911F910F9108950FB6AC
:20270000F8940F928091A80C9091A90C0F900FBE0895FC0173836283918780874617570736
:2027200078F0421B530B8485958548175907C0F4BF016E5F7F4F8091820C9091830C0DC069
:202740004217530718F46217730750F4BF016E5F7F4F8091840C9091850C54DF80E00895A5
:2027600081E00895EF92FF920F931F93CF93DF93E091840CF091850C8081882351F105809B
:20278000F681E02D00811181C681D7817E0182E0E80EF11CC7011ADDE889F989CE011995F0
:2027A0008A8982FFE5CF2C853D85200F311F0217130758F43B832A83D987C887B70180917D
:2027C000840C9091850C1EDFD3CFB801CE01B8D4CFCF8091820C9091830C9093850C809350
:2027E000840CF093830CE093820CDF91CF911F910F91FF90EF900895EF92FF920F931F9305
:20280000CF93DF931F92CDB7DEB77C010091A80C1091A90C80918D0D90918E0D0296698317
:20282000D5DC69818FEFE816F80691F4662381F060918D0D70918E0D6E5F7F4F8CE49DE055
:202840000F90DF91CF911F910F91FF90EF90E2CCE00EF11EE0918D0DF0918E0DF382E28200
:2028600060918D0D70918E0DE016F10670F48091480D9091490D6E5F7F4F0F90DF91CF91F9
:202880001F910F91FF90EF90BDCE80914A0D90914B0D6E5F7F4FB6DE80917D0C90917E0CFA
:2028A000E816F90620F4F0927E0CE0927D0C0F90DF91CF911F910F91FF90EF900895FC0199
:2028C000DB010FB6F8940F924091A80C5091A90C818192812D913C9111972F3F6FEF3607BE
:2028E000F1F07091AA0C6081761719F048175907C0F4481B590B4217530770F4241B350BF9
:202900002D933C938091AA0C80838091A80C9091A90C9283818303C01D921C9202C080E068
:2029200001C081E00F900FBE08950F931F93CF93DF93DC011596ED91FC911697C681D78165
:202940008E01045F1F4FC80141DC8091A50C811113C00A501109C80139DC9E8980918B0DE8
:20296000891710F490938B0DB9E09B9FC0011124B8018959924F03C0B8018EE59DE04ADC21
:20298000E0918D0DF0918E0D9E898689891720F481E080937C0C01C080E0DF91CF911F9189
:2029A0000F910895789484B5826084BD84B5816084BD85B5826085BD85B5816085BD80914B
:2029C0006E00816080936E00109281008091810082608093810080918100816080938100F5
:2029E000809180008160809380008091B10084608093B1008091B00081608093B0008091F2
:202A0000910082608093910080919100816080939100809190008160809390008091A100A1
:202A200082608093A1008091A10081608093A1008091A00081608093A0008091210182605F
:202A400080932101809121018160809321018091200181608093200180917A00846080932F
:202A60007A0080917A00826080937A0080917A00816080937A0080917A00806880937A00E9
:202A80001092C1000E94C70A0AE91CE020E040EC50E066E972E089E291E0D5D1813009F048
:202AA000B2C00FB6F8940F928091A60C9091A70C892B09F04BC08FE89CE0DCDD86E89CE0CD
:202AC000D9DD8FE89CE09093850C8093840C86E89CE09093830C8093820C81E590E0E7DD1F
:202AE000EC01009779F14F96998388838AE08B8F85E08C8F0FB6F8940F92488159818B8D2B
:202B00006C8D9A01869F200D311D11243D832C831A8E5B834A8390E00197689F9001699FE2
:202B2000300D1124CA01820F931F9F838E838FEF8D8F8E8FCE0108969DDDCE0141969ADD27
:202B40000F900FBED093A70CC093A60C0F900FBE8091A60C9091A70C892B09F454C008E935
:202B60001CE023E045E550E06BE972E087E591E06AD1813009F047C0F8942FEF3FEF3093F2
:202B80007E0C20937D0C80938C0D1092A90C1092A80CA89590EC88E10FB6F894A895809353
:202BA00060000FBE90936000A0918D0DB0918E0DCD91CDBFDD91DEBFFF91EF91DF91CF91E9
:202BC000BF91AF919F918F917F916F915F914F913F912F911F910F91FF90EF90DF90CF9079
:202BE000BF90AF909F908F907F906F905F904F903F902F901F900F900CBE0F900BBE0F9070
:202C00000FBE0F9008950E94C70A0E942A0CFDCFEBEAFCE01382128288EE93E0A0E0B0E0C1
:202C200084839583A683B78386E192E09183808385EC90E09587848784EC90E0978786870F
:202C400080EC90E0918B808B81EC90E0938B828B82EC90E0958B848B86EC90E0978B868B47
:202C6000118E128E138E148E0895AF92BF92CF92DF92EF92FF920F931F93CF93DF9300D0C7
:202C80001F921F92CDB7DEB78C017B011D821C8290E0580188E0A80EB11C0FB6F8940F92CD
:202CA000F801228D838D281708F068C0D28C448D41113DC080819181892B09F04FC0F801B7
:202CC000E480F580E114F10411F480E02CC0F70182A1815082A3268991A12917B1F3811178
:202CE000F4CF5701F2E0AF0EB11CC5016FDAF70191A1968B492F50E024E030E0241B350BC8
:202D00003587248780918B0D891710F490938B0D29E0249FC001259F900D1124B501895989
:202D2000924F78DA81E0F8011582148218C050E0B701F80182819381D7D5F801248D8281B0
:202D40009381820F911D93838283248135818217930720F0808191819383828380E0D39472
:202D6000F801D28E9189992319F0C8014196DDDD811171DA0F900FBE81E055C02C813D8197
:202D8000232B19F40F900FBE4DC0911109C08091AA0C89838091A80C9091A90C9B838A835B
:202DA0000F900FBEC0D90FB6F8940F92F801858D8F3F09F4158EF801868D8F3F09F4168E28
:202DC0000F900FBEBE016C5F7F4FCE01019677DD811125C00FB6F8940F92F801928D838DE4
:202DE0000F900FBE981317C0CC80DD8020918D0D30918E0DB901645F7F4FC50103DC61E064
:202E0000C601FADCC801A0D9EBDA882311F091E044CF21DAFCCFC80197D9E2DAF8CFC80193
:202E200093D9DEDA80E00F900F900F900F900F90DF91CF911F910F91FF90EF90DF90CF90F7
:202E4000BF90AF9008956F927F929F92AF92BF92CF92DF92EF92FF920F931F93CF93DF9366
:202E6000982EA92E6B01EA01B22ECA0120DC3C01892B09F456C188E290E019DC7C010097CF
:202E8000E1F0DC0158967C926E925797AE0165EA70E0C30132D52197D7015796ED91FC91F9
:202EA0005897EC0FFD1FC114D104D1F0B701675E7F4FD601C601089606C0C301E9DB31C1DA
:202EC000A817B90749F09D014D91EB014993BE01E90128812111F4CFD70190961C9202C041
:202EE000E701198E2B2D243008F023E0D70156962C93569791962C93919792961C9292971F
:202F00001B961C921E921A9755961C921E9254971996FC92EE92189784E090E0821B910946
:202F20001D969C938E931C975396FC92EE925297E7011BA21CA21DA21EA21FA291E19083D3
:202F4000DF01119782E28C93119723E32C9311979C921197AC9211971C9211971C921197E9
:202F600020E82C9311971C9211971C9211971C92119722E02C93119723E02C93119724E009
:202F80002C93119725E02C93119726E02C93119727E02C93119728E02C93119729E02C934C
:202FA000119720E12C9311979C93119792E19C93119793E19C93119794E19C93119795E1D3
:202FC0009C93119796E19C93119797E19C93119798E19C93119799E19C93119790E29C933B
:202FE000119791E29C9311978C93119783E28C9311971C9211971C92119786E28C93119711
:2030000087E28C93119788E28C93119789E28C93119780E38C93119781E38C93B997F983A4
:20302000E8830115110519F0E801F982E8820FB6F8940F9280918F0D8F5F80938F0D8091D5
:203040008D0D90918E0D892B89F5F0928E0DE0928D0D80918F0D813009F039C087E69DE085
:2030600009DB80E79DE006DB89E79DE003DB82E89DE000DB89E99DE0FDDA80E99DE0FADA9A
:203080008EE59DE0F7DA85E59DE0F4DA8CE49DE0F1DA89E99DE090934B0D80934A0D80E9C5
:2030A0009DE09093490D8093480D11C080918C0D81110DC0E0918D0DF0918E0D9689F7019A
:2030C0008689891720F0F0928E0DE0928D0D8091A20D8F5F8093A20DD70156968C91909196
:2030E0008B0D981710F480938B0DB9E08B9FC0011124B7016E5F7F4F8959924F8BD80F9009
:203100000FBE80918C0D882351F0E0918D0DF0918E0D9689E7018E89981708F49CD881E087
:2031200001C08FEFDF91CF911F910F91FF90EF90DF90CF90BF90AF909F907F906F900895EC
:20314000CF93DF9300D01F921F92CDB7DEB79C018091A60C9091A70C009761F019827B839B
:203160006A833D832C8320918C0D222329F02091A50C02C080E004C0BE016F5F7F4F75DD56
:203180000F900F900F900F900F90DF91CF910895052E97FB16F400940FD057FD05D024D048
:2031A00007FC02D046F408C050954095309521953F4F4F4F5F4F0895909580957095619557
:2031C0007F4F8F4F9F4F089531D0A59F900DB49F900DA49F800D911D11240895B7FFF4CF1D
:2031E000F3DF821B930B0895A1E21A2EAA1BBB1BFD010DC0AA1FBB1FEE1FFF1FA217B307B3
:20320000E407F50720F0A21BB30BE40BF50B661F771F881F991F1A9469F7609570958095B6
:2032200090959B01AC01BD01CF010895A29FB001B39FC001A39F700D811D1124911DB29F5F
:20324000700D811D1124911D08955058BB27AA270ED04DC13ED130F043D120F031F49F3F36
:2032600011F41EF433C10EF4E095E7FB29C1E92F4FD180F3BA17620773078407950718F072
:2032800071F49EF567C10EF4E0950B2EBA2FA02D0B01B90190010C01CA01A0011124FF277D
:2032A000591B99F0593F50F4503E68F11A16F040A22F232F342F4427585FF3CF46953795DD
:2032C0002795A795F0405395C9F77EF41F16BA0B620B730B840BBAF09150A1F0FF0FBB1F34
:2032E000661F771F881FC2F70EC0BA0F621F731F841F48F4879577956795B795F7959E3FF1
:2033000008F0B3CF9395880F08F09927EE0F9795879508950CD0EBC0E3D040F0DAD030F0A6
:2033200021F45F3F19F0CCC0511115C1CFC0F0D098F39923C9F35523B1F3951B550BBB27AD
:20334000AA2762177307840738F09F5F5F4F220F331F441FAA1FA9F333D00E2E3AF0E0E8CE
:2033600030D091505040E695001CCAF729D0FE2F27D0660F771F881FBB1F26173707480711
:20338000AB07B0E809F0BB0B802DBF01FF2793585F4F2AF09E3F510568F092C0DCC05F3FC7
:2033A000ECF3983EDCF3869577956795B795F7959F5FC9F7880F911D9695879597F9089517
:2033C000E1E0660F771F881FBB1F621773078407BA0720F0621B730B840BBA0BEE1F88F776
:2033E000E095089504D06894B111B5C0089598D088F09F5790F0B92F9927B751A0F0D1F0C0
:20340000660F771F881F991F1AF0BA95C9F712C0B13081F09FD0B1E008959CC0672F782FCF
:203420008827B85F39F0B93FCCF3869577956795B395D9F73EF490958095709561957F4F76
:203440008F4F9F4F0895E89409C097FB3EF490958095709561957F4F8F4F9F4F9923A9F0D6
:20346000F92F96E9BB279395F695879577956795B795F111F8CFFAF4BB0F11F460FF1BC0E0
:203480006F5F7F4F8F4F9F4F16C0882311F096E911C0772321F09EE8872F762F05C0662318
:2034A00071F096E8862F70E060E02AF09A95660F771F881FDAF7880F9695879597F9089511
:2034C00097F99F6780E870E060E008959FEF80EC089500240A941616170618060906089555
:2034E00000240A9412161306140605060895092E0394000C11F4882352F0BB0F40F4BF2B53
:2035000011F460FF04C06F5F7F4F8F4F9F4F089557FD9058440F551F59F05F3F71F0479557
:20352000880F97FB991F61F09F3F79F087950895121613061406551FF2CF4695F1DF08C056
:20354000161617061806991FF1CF86957105610508940895E894BB2766277727CB0197F977
:2035600008950BD0C4CFB5DF28F0BADF18F0952309F0A6CFABCF1124EECFCADFA0F3959FF1
:20358000D1F3950F50E0551F629FF001729FBB27F00DB11D639FAA27F00DB11DAA1F649F05
:2035A0006627B00DA11D661F829F2227B00DA11D621F739FB00DA11D621F839FA00D611DBD
:2035C000221F749F3327A00D611D231F849F600D211D822F762F6A2F11249F5750408AF0DE
:2035E000E1F088234AF0EE0FFF1FBB1F661F771F881F91505040A9F79E3F510570F060CF8B
:20360000AACF5F3FECF3983EDCF3869577956795B795F795E7959F5FC1F7FE2B880F911D74
:203620009695879597F9089597FB072E16F4009406D077FD08D013D007FC05D03EF490957D
:2036400081959F4F0895709561957F4F0895EE0FFF1F881F8BBF0790F691E02D1994AA1BBA
:20366000BB1B51E107C0AA1FBB1FA617B70710F0A61BB70B881F991F5A95A9F780959095B2
:20368000BC01CD010895CF93DF938230910510F482E090E0E091A50DF091A60D20E030E0A9
:2036A000C0E0D0E0309711F14081518148175907C0F04817590761F482819381209719F004
:2036C0009B838A832BC09093A60D8093A50D26C02115310519F04217530718F49A01BE01C5
:2036E000DF01EF010280F381E02DDCCF2115310509F1281B390B2430310590F412968D918B
:203700009C9113976115710521F0FB019383828304C09093A60D8093A50DFD01329644C095
:20372000FD01E20FF31F81939193225031092D933C933AC02091A30D3091A40D232B41F4C5
:2037400020910E0230910F023093A40D2093A30D20910C0230910D022115310541F42DB7EB
:203760003EB74091100250911102241B350BE091A30DF091A40DE217F307A0F42E1B3F0B91
:203780002817390778F0AC014E5F5F4F2417350748F04E0F5F1F5093A40D4093A30D819385
:2037A000919302C0E0E0F0E0CF01DF91CF9108950F931F93CF93DF93009709F48CC0FC0151
:2037C0003297138212820091A50D1091A60D0115110581F420813181820F931F2091A30DC8
:2037E0003091A40D2817390779F5F093A40DE093A30D71C0D80140E050E0AE17BF0750F4EA
:2038000012962D913C911397AD012115310509F1D901F3CF9D01DA01338322836081718174
:20382000860F971F8217930769F4EC0128813981260F371F2E5F3F4F318320838A819B8139
:2038400093838283452B29F4F093A60DE093A50D42C01396FC93EE931297ED01499159914F
:203860009E01240F351FE217F30771F480819181840F951F029611969C938E9382819381CA
:2038800013969C938E931297E0E0F0E0D80112968D919C911397009719F0F8018C01F6CF95
:2038A0008D919C9198012E5F3F4F820F931F2091A30D3091A40D2817390769F4309729F433
:2038C0001092A60D1092A50D02C0138212821093A40D0093A30DDF91CF911F910F91089500
:2038E00081E090E0F89465C3FB01DC0102C001900D9241505040D8F70895DC0101C06D934D
:2039000041505040E0F70895CF93DF93CDB7DEB72E970FB6F894DEBF0FBECDBF85E08C83A5
:203920008C899D899A838983AE01485E5F4F6E897F89CE010196B0D12E960FB6F894DEBF88
:203940000FBECDBFDF91CF91089520FD09C0FC0123FD05C022FF02C0738362835183408384
:20396000089544FD10C046FD10C0DB01FC01AA0FBB1FEE1FFF1F1094D1F76A0F7B1F8E1FC3
:203980009F1F31E003C033E001C034E0660F771F881F991F3150D1F7620F711D811D911DAF
:2039A00008950F931F93CF93DF938C01C801A7D2EC0197FD06C090D2892BC1F7B801CE01D6
:2039C000DCD2CE01DF91CF911F910F9108958F929F92AF92BF92CF92DF92EF92FF920F9343
:2039E0001F93CF93DF931F92CDB7DEB78C01C62E7A01298384D2AC01552729814B325105D3
:203A000021F04D32510561F42068CA94C11002C080E06FC0C801298372D2298197FDF8CFA5
:203A2000322F3D7FD32E322F307339F5803329F5BB24BA94BC0C09F449C0C80129835FD2C4
:203A4000298197FD43C0382F3F7D383561F48D2D8264D82ECA94CA94CC20C1F1C8014FD256
:203A600097FF0BC033C026FF04C02D2D2260D22E03C03D2D3261D32ECB2C812C912C5401B6
:203A800020ED280F283078F0D4FE03C0B80175D21AC02A3040F0D6FEF9CF2F7D3FEE320F73
:203AA0003630A0F727504D2DC501B4015ADF4B015C018D2D8260D82ECA94CC2051F0C801C5
:203AC0001ED297FFDDCFD1FC04C0A2CF812C912C5401D7FE08C0B094A09490948094811C09
:203AE000911CA11CB11C2D2DB501A401C7012DDF81E00F90DF91CF911F910F91FF90EF90D8
:203B0000DF90CF90BF90AF909F908F9008956F927F928F929F92AF92BF92CF92DF92EF9215
:203B2000FF920F931F93CF93DF93CDB7DEB7A1970FB6F894DEBF0FBECDBF5C017A01CE018D
:203B400001966C0180E2F60111928A95E9F7F501838040E050E0912C712C70E0A1E0B0E062
:203B6000F90183FC859183FE81918F01982F9F01811103C080E090E07AC08E3519F44115A7
:203B8000510549F1E72FF0E0E417F5073CF48D3559F18D3219F4772001F103C0711001C022
:203BA000982E892F8695869586958601080F111D892F87703D0101C0660C8A95EAF7F80151
:203BC000808186298083991559F0991510F49F5FE8CF9150E6CF71E004C07724739401C0C6
:203BE000712C4F5F5F4FBCCF772019F08E8180628E83711103C09924939416C0F6019E010A
:203C00002F5D3F4F808180958193E217F307D1F7F2CFE114F10429F0F7018083C701019687
:203C20007C016150912CE9F0C50169A368D169A197FD15C0282F269526952695F601E20FD2
:203C4000F11D208130E0AC014770552702C0359527954A95E2F720FDDCCFB5018ED1911047
:203C600089CFE114F10411F0F7011082C801A1960FB6F894DEBF0FBECDBFDF91CF911F91B0
:203C80000F91FF90EF90DF90CF90BF90AF909F908F907F906F9008954F925F927F928F921D
:203CA0009F92AF92BF92CF92DF92EF92FF920F931F93CF93DF931F92CDB7DEB76C012B01D2
:203CC0005A01FC0117821682712CF601F380F201F3FC8591F3FE8191382F2F01882309F41A
:203CE000E5C090E03983F8D03981892B19F0C60158DEEBCF353241F4F201F3FC3591F3FEC8
:203D000031912F01353259F4C6013983F8D0398197FDCAC03817C9F2B6012FD1C7C03A3226
:203D200039F4F3FC3591F3FE31912F0151E001C050E0420110E020ED230F2A3088F45260A2
:203D4000612F70E080E090E040E259830ADE162FF401F3FC3591F3FE31914F015981EBCF47
:203D6000052F232F240151FF03C0111102C09EC01FEF383619F03C3659F011C0F401F3FC4E
:203D80002591F3FE21912F01283649F4052F08600460F201F3FC2591F3FE21912F0122234F
:203DA00009F484C0622F70E080E491E029839CD02981892B09F47AC000FD07C0F501E08045
:203DC000F180C50102965C0102C0E12CF12C2E3649F4F6014681578160E070E0202FC701ED
:203DE000B4DD73CF233689F401FF11E0C60187D097FD5AC0E114F10429F0F7018083C70197
:203E000001967C01115091F74BC02B3551F49201A701612FC6017BDE2C01892B09F040C030
:203E20003AC0C6012983BDDD298197FD3DC02F3641F128F4243619F1293631F124C023376A
:203E400069F02537E1F01FC0E114F10429F0F7018082C70101967C01115059F0C6014FD094
:203E60004C0197FD06C038D0892B71F3B601C40184D0E114F104A1F0F701108211C0006273
:203E800003C0006101C00064202FA701612FC6019EDD811105C0F6018381807329F406C0E8
:203EA00000FD13CF739411CF772019F0872D90E002C08FEF9FEF0F90DF91CF911F910F91EB
:203EC000FF90EF90DF90CF90BF90AF909F908F907F905F904F900895911168C0803219F02B
:203EE00089508550D0F70895FC010590061621F00020D9F7C00108953197CF010895CF930C
:203F0000DF93EC012B8120FF33C026FF0AC02F7B2B838E819F8101969F838E838A8190E0C9
:203F200029C022FF0FC0E881F9818081082E000C990B009719F420622B831AC03196F983ED
:203F4000E8830EC0EA85FB85199597FF09C02B81019611F080E201C080E1822B8B8308C0E1
:203F60002E813F812F5F3F4F3F832E83992702C08FEF9FEFDF91CF910895FB01238120FF89
:203F800012C026FD10C08F3F3FEF930761F082832F7D2064238326813781215031093783D6
:203FA0002683992708958FEF9FEF0895992788270895F894FFCF320000005A0000005A0006
:203FC0005A000000A70D800000000000C30B2D0B5C0B090C8D0B6B0B7F0B4D656E746F72C4
:203FE00020526F626F7469632041726D00456E74657220616E676C657320666F723A0078DE
:204000003120783220783320783420783520477269700025642025642025642025642025C6
:204020006420256400416E676C65476574004178655F31004178655F32004178655F33005F
:204040004178655F34004178655F350049444C4500546D7220537663000D0A00FFFFFFFF4D
:20406000FFFFFFFFFFFFFFFFFFFFFFFFFFFFFFFFFFFFFFFFFFFFFFFFFFFFFFFFFFFFFFFF60
:20408000FFFFFFFFFFFFFFFFFFFFFFFFFFFFFFFFFFFFFFFFFFFFFFFFFFFFFFFFFFFFFFFF40
:2040A000FFFFFFFFFFFFFFFFFFFFFFFFFFFFFFFFFFFFFFFFFFFFFFFFFFFFFFFFFFFFFFFF20
:2040C000FFFFFFFFFFFFFFFFFFFFFFFFFFFFFFFFFFFFFFFFFFFFFFFFFFFFFFFFFFFFFFFF00
:2040E000FFFFFFFFFFFFFFFFFFFFFFFFFFFFFFFFFFFFFFFFFFFFFFFFFFFFFFFFFFFFFFFFE0
:20410000D9F7C00108953197CF010895CF93DF93EC012B8120FF33C026FF0AC02F7B2B8376
:204120008E819F8101969F838E838A8190E029C022FF0FC0E881F9818081082E000C990B68
:20414000009719F420622B831AC03196F983E8830EC0EA85FB85199597FF09C02B810196F6
:2041600011F080E201C080E1822B8B8308C02E813F812F5F3F4F3F832E83992702C08FEF39
:204180009FEFDF91CF910895FB01238120FF12C026FD10C08F3F3FEF930761F082832F7D08
:2041A00020642383268137812150310937832683992708958FEF9FEF089599278827089556
:2041C000F894FFCF320000005A0000005A005A000000B30D800000000000820EEC0D1B0E53
:2041E000C80E4C0E2A0E3E0E6E616E00696E66006F7666000D0A004D656E746F7220526FD9
:20420000626F7469632041726D00456E74657220616E676C657320666F723A0078312078D3
:204220003220783320783420783520477269700025642025642025642025642025642025C4
:204240006400416E676C65476574004178655F31004178655F32004178655F3300417865C8
:204260005F34004178655F350049444C4500546D722053766300FFFFFFFFFFFFFFFFFFFF66
:20428000FFFFFFFFFFFFFFFFFFFFFFFFFFFFFFFFFFFFFFFFFFFFFFFFFFFFFFFFFFFFFFFF3E
:2042A000FFFFFFFFFFFFFFFFFFFFFFFFFFFFFFFFFFFFFFFFFFFFFFFFFFFFFFFFFFFFFFFF1E
:2042C000FFFFFFFFFFFFFFFFFFFFFFFFFFFFFFFFFFFFFFFFFFFFFFFFFFFFFFFFFFFFFFFFFE
:2042E000FFFFFFFFFFFFFFFFFFFFFFFFFFFFFFFFFFFFFFFFFFFFFFFFFFFFFFFFFFFFFFFFDE
:2043000000256420256420256420256420256420256400416E676C65476574004178655F43
:2043200031004178655F32004178655F33004178655F34004178655F350049444C45005418
:204340006D7220537663006E616E00696E66006F76660000FFFFFFFFFFFFFFFFFFFFFFFF79
:20436000FFFFFFFFFFFFFFFFFFFFFFFFFFFFFFFFFFFFFFFFFFFFFFFFFFFFFFFFFFFFFFFF5D
:20438000FFFFFFFFFFFFFFFFFFFFFFFFFFFFFFFFFFFFFFFFFFFFFFFFFFFFFFFFFFFFFFFF3D
:2043A000FFFFFFFFFFFFFFFFFFFFFFFFFFFFFFFFFFFFFFFFFFFFFFFFFFFFFFFFFFFFFFFF1D
:2043C000FFFFFFFFFFFFFFFFFFFFFFFFFFFFFFFFFFFFFFFFFFFFFFFFFFFFFFFFFFFFFFFFFD
:020000040003F7
:20E000000D9489F10D94B2F10D94B2F10D94B2F10D94B2F10D94B2F10D94B2F10D94B2F109
:20E020000D94B2F10D94B2F10D94B2F10D94B2F10D94B2F10D94B2F10D94B2F10D94B2F1C0
:20E040000D94B2F10D94B2F10D94B2F10D94B2F10D94B2F10D94B2F10D94B2F10D94B2F1A0
:20E060000D94B2F10D94B2F10D94B2F10D94B2F10D94B2F10D94B2F10D94B2F10D94B2F180
:20E080000D94B2F10D94B2F10D94B2F10D94B2F10D94B2F10D94B2F10D94B2F10D94B2F160
:20E0A0000D94B2F10D94B2F10D94B2F10D94B2F10D94B2F10D94B2F10D94B2F10D94B2F140
:20E0C0000D94B2F10D94B2F10D94B2F10D94B2F10D94B2F10D94B2F10D94B2F10D94B2F120
:20E0E0000D94B2F141546D656761323536300041726475696E6F206578706C6F726572205D
:20E1000073746B3530305632206279204D4C5300426F6F746C6F616465723E004875683FDC
:20E1200000436F6D70696C6564206F6E203D20004350552054797065202020203D20005F52
:20E140005F4156525F415243485F5F3D2000415652204C696243205665723D200047434305
:20E160002056657273696F6E203D20004350552049442020202020203D20004C6F772066B2
:20E18000757365202020203D20004869676820667573652020203D200045787420667573A6
:20E1A00065202020203D20004C6F636B20667573652020203D20004D6172202037203230EB
:20E1C000313300312E362E3800342E332E35005623202020414444522020206F7020636FC3
:20E1E00064652020202020696E737472756374696F6E2061646472202020496E7465727265
:20E20000757074006E6F20766563746F7200726A6D702020006A6D70200057686174207091
:20E220006F72743A00506F7274206E6F7420737570706F72746564004D7573742062652083
:20E2400061206C65747465720020005772697474696E672045450052656164696E6720456C
:20E26000450045452065727220636E743D00504F525400303D5A65726F2061646472003F78
:20E280003D43505520737461747300403D454550524F4D207465737400423D426C696E6B76
:20E2A000204C454400453D44756D7020454550524F4D00463D44756D7020464C41534800C2
:20E2C000483D48656C70004C3D4C69737420492F4F20506F72747300513D51756974005269
:20E2E0003D44756D702052414D00563D73686F7720696E7465727275707420566563746FC9
:20E30000727300593D506F727420626C696E6B002A0011241FBECFEFD1E2DEBFCDBF01E0F6
:20E320000CBF12E0A0E0B2E0EEE1FDEF03E00BBF02C007900D92A030B107D9F712E0A0E0E4
:20E34000B2E001C01D92AE30B107E1F70F9460F30D948DFE01E20EBF0FEF0DBF11241FBE9F
:20E360000D9460F30D9400F020E030E040ED57E005C0FA013197F1F72F5F3F4F2817390799
:20E38000C0F308959C01260F311DC901A0E0B0E02F5F3F4FABBFFC018791882361F0809389
:20E3A000C6008091C00086FFFCCF8091C00080648093C000EACF08958DE08093C600809141
:20E3C000C00086FFFCCF8091C00080648093C0008AE08093C6008091C00086FFFCCF809130
:20E3E000C00080648093C00008950F94C2F10F94DCF10895FC019081992359F09093C600AA
:20E400008091C00086FFFCCF8091C00080648093C0003196992379F70895282F982F92957E
:20E420009F70892F805D8A3308F0895F8093C6008091C00086FFFCCF8091C00080648093D9
:20E44000C000822F8F70982F905D9A3308F0995F9093C6008091C00086FFFCCF8091C00000
:20E4600080648093C00008959C01FB01853691051CF46330710594F0C90164E670E00F94BA
:20E480002EFE605D7F4F6093C6008091C00086FFFCCF8091C00080648093C0002B303105D2
:20E4A00014F43297B4F0C90164E670E00F942EFE6AE070E00F942EFE605D7F4F6093C60007
:20E4C0008091C00086FFFCCF8091C00080648093C000C9016AE070E00F942EFEC0968093F7
:20E4E000C6008091C00086FFFCCF8091C00080648093C00008951F93182F8EE692EE60E0E3
:20E500000F94C2F11093C6008091C00086FFFCCF8091C00080648093C0000F94DCF11F9173
:20E5200008952F923F924F925F926F927F928F929F92AF92BF92CF92DF92EF92FF920F935E
:20E540001F93DF93CF93CDB7DEB762970FB6F894DEBF0FBECDBF382E622ECA01DB015C01E2
:20E560006D01772420E2222E2E010894411C511C8BC081E0A81680E0B80681E0C80680E094
:20E58000D80628F0C601AA27BB270F940DF2BB27AD2D9C2D8B2D0F940DF28A2D0F940DF231
:20E5A0002092C6008091C00086FFFCCF8091C00080648093C0009DE29093C6008091C00001
:20E5C00086FFFCCF8091C00080648093C0002092C6008091C00086FFFCCF8091C000806415
:20E5E0008093C00019828601750188249924A1E03A1651F03A1620F0B2E03B1661F409C0D4
:20E600000BBFF701779007C0C7010F9477FE782E02C0F7017080872D0F940DF22092C6006C
:20E620008091C00086FFFCCF8091C00080648093C000872D8052F401EF70F0708F3520F41F
:20E64000E40DF51D708204C0E40DF51D8EE280830894E11CF11C011D111D0894811C911CB3
:20E6600090E18916910409F0C2CF80E190E0A0E0B0E0A80EB91ECA1EDB1E198AC2010F9413
:20E68000FAF10F94DCF16A94662009F072CF62960FB6F894DEBF0FBECDBFCF91DF911F91A2
:20E6A0000F91FF90EF90DF90CF90BF90AF909F908F907F906F905F904F903F902F900895FB
:20E6C0002F923F924F925F926F927F928F929F92AF92BF92CF92DF92EF92FF920F931F93A8
:20E6E000DF93CF93CDB7DEB7CD53D1400FB6F894DEBF0FBECDBF01E20EBF0FEF0DBF94B7F0
:20E70000F894A89514BE8091600088618093600010926000789493FF05C0E0910002F09138
:20E7200001021995279A2F9A8091C00082608093C00080E18093C40088E18093C1000000A3
:20E74000EE24FF24870144E0A42EB12CCC24DD2424C0C5010197F1F70894E11CF11C011D4A
:20E76000111D21E2E2162EE4F20620E0020720E0120718F031E0C32ED12CC801B70127ECA9
:20E780003BE140E050E00F9441FE611571058105910519F485B1805885B98091C00087FD75
:20E7A00003C0C114D104A9F2A6014F5F5F4FC25EDE4F59834883CE51D140C25EDE4F8881D4
:20E7C0009981CE51D140019711F00D9410FEC05DDE4F19821882C053D14060E0C15DDE4F79
:20E7E0001882CF52D14088249924C35DDE4F19821882CD52D140C05EDE4F188219821A8216
:20E800001B82C052D140CE5CDE4F188219821A821B82C253D140EE24FF2487010BBFF701CE
:20E8200007911691C45CDE4F19830883CC53D1400D940BFEC25EDE4F28813981CE51D1406B
:20E840002130310509F52091C600C25EDE4F19821882CE51D14022C02F5F3F4F4F4F5F4FC0
:20E86000213082E138078AE7480780E0580780F0C45CDE4FE881F981CC53D140EF5FFF4FBA
:20E8800019F0EE27FF27099420E030E040E050E08091C00087FFE0CF2091C600C35DDE4F6D
:20E8A00048815981CD52D1404F5F5F4FC35DDE4F59834883CD52D140213209F063C64A3016
:20E8C000510508F05FC60894811C911C53E08516910409F059C600E010E018C081E2809346
:20E8E000C6008091C00086FFFCCF8091C00080648093C0002F5F3F4F2931310579F70F94EA
:20E90000DCF10F5F1F4F0530110519F020E030E0E5CF10920A0210920B0210920C02109287
:20E920000D0210920602109207021092080210920902109202021092030210920402109283
:20E9400005028FEE90EE60E00F94F5F180E191EE60E00F94C2F18091C00087FFFCCF909133
:20E96000C600903608F09F759032B8F09093C6008091C00086FFFCCF8091C00080648093C3
:20E98000C000A0E2A093C6008091C00086FFFCCF8091C00080648093C000983409F4D7C132
:20E9A0009934B8F4923409F459C1933458F4903319F1903308F4E3C59F33A1F1903409F099
:20E9C000DEC5BDC0953409F470C1963409F0D7C598C1923509F42BC2933538F49C3409F4F6
:20E9E000F5C1913509F0CBC518C2963509F445C2993509F0C4C567C483E792EE62E00F941F
:20EA0000F5F11092060210920702109208021092090210920A0210920B0210920C021092B3
:20EA20000D0213C18FE792EE62E00F94F5F18FEE90EE60E00F94F5F181E291EE60E00F94A9
:20EA4000C2F187EB91EE60E00F94F5F180E391EE60E00F94C2F184EE90EE60E00F94F5F118
:20EA60008FE391EE60E00F94C2F186E090E061E070E00F9434F20F94DCF18DE591EE60E03E
:20EA80000F94C2F189EC91EE60E00F94F5F18EE491EE60E00F94C2F183EC91EE60E00F940B
:20EAA000F5F18CE691EE60E00F94C2F18EE10F940DF288E90F940DF281E00F940DF20F941F
:20EAC000DCF18BE791EE60E00F94C2F119E0E0E0F0E010935700E4918E2F0F940DF20F94E8
:20EAE000DCF18AE891EE60E00F94C2F1E3E0F0E010935700E4918E2F0F940DF20F94DCF1F1
:20EB000089E991EE60E00F94C2F1E2E0F0E010935700E4918E2F0F940DF20F94DCF188EA2C
:20EB200091EE60E00F94C2F1E1E0F0E0109357001491812F0F940DF20F94DCF107CF8BE885
:20EB400092EE62E00F94F5F18BE492EE60E00F94F5F10F94DCF100E010E019C0C8016F2D34
:20EB60000F947FFEFF2031F489E492EE60E00F94C2F10BC0F092C6008091C00086FFFCCF7A
:20EB80008091C00080648093C0000F5F1F4FC80181519F41A0E0B0E0ABBFFC01F790BAE2FC
:20EBA000FB1621F0E2E000301E07C1F60F94DCF10F94DCF187E592EE60E00F94F5F10F942D
:20EBC000DCF1CC24DD2400E010E01EC0C8010F9477FEF82E882331F489E492EE60E00F9422
:20EBE000C2F10BC08093C6008091C00086FFFCCF8091C00080648093C000FE1419F008945E
:20EC0000C11CD11C0F5F1F4FC80181519F41A0E0B0E0ABBFFC01E790FAE2EF1621F022E0F1
:20EC20000030120799F60F94DCF10F94DCF182E692EE60E00F94C2F1C60161E070E00F94A3
:20EC400034F20F94DCF10F94DCF11092020210920302109204021092050278CE89E992EED8
:20EC600062E00F94F5F1279A2F9A16C02F9880E090E0E0EDF7E03197F1F701968436910597
:20EC8000C1F72F9A80E090E0E0EDF7E03197F1F7019684369105C1F78091C00087FFE6CF24
:20ECA0008091C00087FFFCCF64C485EA92EE62E00F94F5F14091020250910302609104029E
:20ECC0007091050281E020E10F9491F28091020290910302A0910402B091050280509F4F2C
:20ECE000AF4FBF4F8093020290930302A0930402B093050280509041A040B04008F426CEE5
:20ED0000A4CF83EB92EE62E00F94F5F14091060250910702609108027091090280E020E19C
:20ED20000F9491F28091060290910702A0910802B091090280509F4FAF4FBF4F80930602FE
:20ED400090930702A0930802B0930902FFCD80EC92EE62E00F94F5F183E792EE60E00F94AC
:20ED6000F5F18FE792EE60E00F94F5F18BE892EE60E00F94F5F189E992EE60E00F94F5F177
:20ED800085EA92EE60E00F94F5F183EB92EE60E00F94F5F180EC92EE60E00F94F5F187ECDC
:20EDA00092EE60E00F94F5F188ED92EE60E00F94F5F18FED92EE60E00F94F5F18AEE92EE8F
:20EDC00060E00F94F5F183E093EEBDCD87EC92EE62E00F94F5F181E40F947BF282E40F94C0
:20EDE0007BF283E40F947BF284E40F947BF285E40F947BF286E40F947BF287E40F947BF249
:20EE000088E40F947BF28AE40F947BF28BE40F947BF28CE40F947BF299CD88ED92EE62E05C
:20EE20000F94F5F1772473948824992409C48FED92EE62E00F94F5F140910A0250910B02DF
:20EE400060910C0270910D0282E020E10F9491F280910A0290910B02A0910C02B0910D0240
:20EE600080509F4FAF4FBF4F80930A0290930B02A0930C02B0930D0269CD8AEE92EE62E076
:20EE80000F94F5F184EE90EE60E00F94F5F18FEC91EE60E00F94F5F1662477244301CC5DDB
:20EEA000DE4F19821882C452D140D401C301B695A79597958795CA5DDE4F88839983AA83B9
:20EEC000BB83C652D140CC5DDE4FA881B981C452D1401196CC5DDE4FB983A883C452D14060
:20EEE000CD0162E070E00F9434F2B0E2B093C6008091C00086FFFCCF8091C0008064809365
:20EF0000C000EDE2E093C6008091C00086FFFCCF8091C00080648093C000F0E2F093C60065
:20EF20008091C00086FFFCCF8091C00080648093C000CA5DDE4FE880F9800A811B81C652B4
:20EF4000D140BB27A12F902F8F2D0F940DF2CA5DDE4F8881C652D1400F940DF2B0E2FB2EEE
:20EF6000F092C6008091C00086FFFCCF8091C00080648093C0000DE30093C6008091C00086
:20EF800086FFFCCF8091C00080648093C00010E21093C6008091C00086FFFCCF8091C0004C
:20EFA00080648093C0008BBEF3012791C65DDE4F2883CA52D140A22EBB24CC24DD24089441
:20EFC000611C711C811C911C8BBEF3018791282E3324442455240894611C711C811C911C0A
:20EFE0008BBEF3013791C55DDE4F3883CB52D1400894611C711C811C911C8BBEF3014791CF
:20F00000C45DDE4F4883CC52D140ADEFEA2EAFEFFA2EAFEF0A2FAFEF1A2F6E0C7F1C801EBD
:20F02000911E142D032DF22CEE24EA0CFB1C0C1D1D1D0F940DF220E22093C6008091C00022
:20F0400086FFFCCF8091C00080648093C000C65DDE4F8881CA52D1400F940DF230E23093DB
:20F06000C6008091C00086FFFCCF8091C00080648093C000C45DDE4F8881CC52D1400F94F8
:20F080000DF240E24093C6008091C00086FFFCCF8091C00080648093C000C55DDE4F8881B5
:20F0A000CB52D1400F940DF250E25093C6008091C00086FFFCCF8091C00080648093C000FC
:20F0C0008FEFE8168FEFF80680E0080780E0180731F484E092EE60E00F94C2F1DFC0D80133
:20F0E000C7018070907CA070B0708050904CA040B040D1F52FEF3FE340E050E0E222F32231
:20F1000004231523CA5DDE4FA880B980CA80DB80C652D140AE0CBF1CC01ED11EAA0CBB1C1E
:20F12000CC1CDD1C8EE092EE60E00F94C2F1BB27A12F902F8F2D0F940DF28E2D0F940DF23E
:20F1400030E23093C6008091C00086FFFCCF8091C00080648093C0004EE34093C600809190
:20F16000C00086FFFCCF87C08EE09EEFA0E0B0E0E822F9220A231B239CE0E91694E9F906A6
:20F1800090E0090790E0190709F088C0C45DDE4FA881CC52D140EA2EFF2400E010E0102F2E
:20F1A0000F2DFE2CEE24C55DDE4FB881CB52D140EB0EF11C011D111DD601C5018170907041
:20F1C000A070B070DC0199278827E80EF91E0A1F1B1F20EF30E040E050E0A222B322C42255
:20F1E000D52241E1AA0CBB1CCC1CDD1C4A95D1F7EA0CFB1C0C1D1D1D81E090E0A0E0B0E090
:20F20000282239224A225B2235E1220C331C441C551C3A95D1F7E20CF31C041D151D5701BD
:20F220006801AA0CBB1CCC1CDD1C85E192EE60E00F94C2F1C801AA27BB270F940DF2BB277B
:20F24000A12F902F8F2D0F940DF28E2D0F940DF290E29093C6008091C00086FFFCCF8091D7
:20F26000C00080648093C000AEE3A093C6008091C00086FFFCCF8091C00080648093C000E4
:20F28000C601AA27BB270F940DF2BB27AD2D9C2D8B2D0F940DF28A2D0F940DF20F94DCF1AA
:20F2A000CC5DDE4FE881F981C452D140F99709F44DCBF4E0EF2EF12C012D112D6E0C7F1CBA
:20F2C000801E911EF2CD83E093EE62E00F94F5F18AE192EE60E00F94C2F18091C00087FF9B
:20F2E000FCCF1091C6001F751093C6008091C00086FFFCCF8091C00080648093C0000F9493
:20F30000DCF1812F81548A3108F036C1163409F495C0173490F4133409F44EC0143430F4C8
:20F320001134F1F0123409F01DC130C0143409F459C0153409F016C16BC01A3409F4C4C029
:20F340001B3438F4173409F48FC0183409F00AC1A1C01B3409F4D2C01C3409F003C1E8C097
:20F360008FEF81B90DC082B1809582B980E090E0E0EDF7E03197F1F70196883C9105C1F7B8
:20F380008091C00087FFEFCF12B8EFC08FEF84B90DC085B1809585B980E090E0E0EDF7E05A
:20F3A0003197F1F70196883C9105C1F78091C00087FFEFCF15B8D9C08FEF87B90DC088B1B5
:20F3C000809588B980E090E0E0EDF7E03197F1F70196883C9105C1F78091C00087FFEFCFF5
:20F3E00018B8C3C08FEF8AB90DC08BB180958BB980E090E0E0EDF7E03197F1F70196883C18
:20F400009105C1F78091C00087FFEFCF1BB8ADC08FEF8DB90DC08EB180958EB980E090E04D
:20F42000E0EDF7E03197F1F70196883C9105C1F78091C00087FFEFCF1EB897C08FEF80BBD4
:20F440000DC081B3809581BB80E090E0E0EDF7E03197F1F70196883C9105C1F78091C000BC
:20F4600087FFEFCF11BA81C08FEF83BB0DC084B3809584BB80E090E0E0EDF7E03197F1F704
:20F480000196883C9105C1F78091C00087FFEFCF14BA6BC08FEF809301010FC0809102013F
:20F4A00080958093020180E090E0E0EDF7E03197F1F70196883C9105C1F78091C00087FFFD
:20F4C000EDCF1092020151C08FEF809304010FC08091050180958093050180E090E0E0ED73
:20F4E000F7E03197F1F70196883C9105C1F78091C00087FFEDCF1092050137C08FEF809399
:20F5000007010FC08091080180958093080180E090E0E0EDF7E03197F1F70196883C9105B4
:20F52000C1F78091C00087FFEDCF109208011DC08FEF80930A010FC080910B0180958093C8
:20F540000B0180E090E0E0EDF7E03197F1F70196883C9105C1F78091C00087FFEDCF10921D
:20F560000B0103C085E292EEEEC98091C00087FFFCCF8091C600EAC988E392EEE4C98CE16D
:20F5800091EEE1C988249924933011F1943028F4913089F09230B8F408C0953061F19530E8
:20F5A000F0F0963009F048C043C02B3109F042C991E06BE13FC96227C15DDE4F2883CF52DC
:20F5C000D14092E037C9B22FA0E0622793E032C9822F90E0A82BB92B622794E02BC92E3029
:20F5E00009F039C3622795E0C05DDE4F19821882C053D1401FC9E1E0F0E0EC0FFD1FC05DC8
:20F60000DE4F08811981C053D140E00FF11F20830F5F1F4FC05DDE4F19830883C053D14063
:20F6200062270A171B0709F005C9D80196E002C9261709F010C303C0973009F0FBC8772433
:20F640009981933109F412C19431C8F4963009F4D8C0973050F4923009F406C1933009F4CF
:20F660006DC0913009F059C253C0913109F477C0923108F0BBC0903109F04FC2F5C0983100
:20F6800009F487C0993150F4953109F4EFC0953108F4C6C1963109F040C2C2C19A3109F450
:20F6A0006CC09A3108F491C09B3109F45BC09D3109F033C29D81903359F48F81882311F478
:20F6C0009EE11CC0813011F091E018C098E916C0892F807591F0903539F4E0E0F0E089E064
:20F6E0008093570094910AC0983539F4E3E0F0E089E080935700949101C090E01A821B82C2
:20F700008D818C831D829E831F8227E030E009C21A8288E08B8381E48C8386E58D8382E521
:20F720008E8389E48F8383E5888780E589878FE58A8782E38B872BE030E0F3C18A818139BD
:20F7400041F0823941F0803911F48FE005C080E003C082E001C08AE01A828B8344C07724A1
:20F76000739482C08D81882311F48EE12CC0813011F081E028C088E926C01A82E1E0F0E0A8
:20F7800089E08093570084918B831C8224E030E0C8C18B81803589F48C81883039F4E2E046
:20F7A000F0E089E08093570084910DC0E0E0F0E089E080935700849106C0E3E0F0E089E08A
:20F7C0008093570084911A82DFCF8D81836C99E0E1E0F0E0082E90935700E89507B600FC73
:20F7E000FDCF1A821B8223E030E09BC180EC8A83CE5CDE4F188219821A821B82C253D14031
:20F800008EC18A8190E0A0E0B0E0582F4427332722278B8190E0A0E0B0E0DC0199278827A1
:20F82000282B392B4A2B5B2B8D8190E0A0E0B0E0282B392B4A2B5B2B8C8190E0A0E0B0E049
:20F84000BA2FA92F982F8827282B392B4A2B5B2B220F331F441F551FC05EDE4F28833983B3
:20F860004A835B83C052D1401A8259C13A81C95CDE4F3883C753D140CA5CDE4F1882C6530B
:20F88000D1408B81C82EDD24CA5CDE4F48815981C653D140C42AD52A933109F082C0CE5C1E
:20F8A000DE4F88819981AA81BB81C253D1408050904CA340B04030F583E0CE5CDE4FE880A5
:20F8C000F9800A811B81C253D140F70100935B0080935700E89507B600FCFDCFCE5CDE4FB9
:20F8E000088119812A813B81C253D14000501F4F2F4F3F4FCE5CDE4F088319832A833B83A5
:20F90000C253D140C05EDE4F488159816A817B81C052D140DE011B9631E08C9111962C91A7
:20F9200011971296C75CDE4F2883C953D140C85CDE4F1882C853D14090E0C85CDE4FE8810E
:20F94000F981C853D1408E2B9F2B0C01FA0160935B0030935700E89511244E5F5F4F6F4F43
:20F960007F4F0EEFE02E0FEFF02ECE0CDF1CC114D10499F685E0C05EDE4F088119812A8106
:20F980003B81C052D140F80120935B0080935700E89507B600FCFDCF81E180935700E895CC
:20F9A00035C0C05EDE4F88819981AA81BB81C052D140B695A795979587957C018601ABE0FC
:20F9C000AA2EB12CAC0EBD1E0BC0D5016D915D01C7010F947FFE0894E11CF11C01501040B1
:20F9E0000115110591F7A60160E070E0440F551F661F771FC05EDE4FE880F9800A811B81E7
:20FA0000C052D1404E0D5F1D601F711F1A82C05EDE4F488359836A837B83C052D1407FC002
:20FA2000FA80C55CDE4FF882CB53D140C65CDE4F1882CA53D1408B81C82EDD24C65CDE4FEC
:20FA400008811981CA53D140C02AD12A1A828981BE016D5F7F4F843121F59601C05EDE4FC4
:20FA6000E880F9800A811B81C052D1400BBFF70187919691DB018C9311969C936E5F7F4FEE
:20FA8000D801C7010296A11DB11DC05EDE4F88839983AA83BB83C052D14022503040F1F6D8
:20FAA00036C0C05EDE4F288139814A815B81C052D1400894C108D108760100E010E00894B7
:20FAC000C11CD11C0894E11CF11C011D111DE20EF31E041F151F21BDBB27A52F942F832F09
:20FAE00082BD2F5F3F4F4F4F5F4FF89A80B5DB018D93BD012E153F054007510761F7C05E42
:20FB0000DE4F288339834A835B83C052D14096012D5F3F4FFB01108204C080EC8A8322E005
:20FB200030E08BE18093C6008091C00086FFFCCF8091C00080648093C000C15DDE4FF88103
:20FB4000CF52D140F093C6008091C00086FFFCCF8091C00080648093C000432F3093C60086
:20FB60008091C00086FFFCCF8091C00080648093C000922F2093C6008091C00086FFFCCF81
:20FB80008091C00080648093C0008EE08093C6008091C00086FFFCCF8091C00080648093AD
:20FBA000C00065E1C15DDE4FE880CF52D1406E2569276427FE01319610C090819093C6001C
:20FBC0008091C00086FFFCCF31968091C00080648093C0006927215030402115310569F778
:20FBE0006093C6008091C00086FFFCCF8091C00080648093C00085B1805885B9772081F44B
:20FC0000C15DDE4F0881CF52D1400F5FC15DDE4F0883CF52D14090E0A0E0B0E00D941AF439
:20FC200027982F9880E090E020ED37E0F9013197F1F7019684369105C9F700008091C00028
:20FC40008D7F8093C00081E180935700E895EE27FF270994FFCF90E00D941AF497FB092EEE
:20FC600007260AD077FD04D02ED006D000201AF4709561957F4F0895F6F7909581959F4FB7
:20FC80000895A1E21A2EAA1BBB1BFD010DC0AA1FBB1FEE1FFF1FA217B307E407F50720F05E
:20FCA000A21BB30BE40BF50B661F771F881F991F1A9469F760957095809590959B01AC01D5
:20FCC000BD01CF010895AA1BBB1B51E107C0AA1FBB1FA617B70710F0A61BB70B881F991F65
:20FCE0005A95A9F780959095BC01CD010895F999FECF92BD81BDF89A992780B50895262FAE
:1EFD0000F999FECF1FBA92BD81BD20BD0FB6F894FA9AF99A0FBE01960895F894FFCF70
:00000001FF
