:100000000C94FC000C9426010C9426010C942601FF
:100010000C9426010C9426010C9426010C942601C4
:100020000C9426010C9426010C9426010C942601B4
:100030000C94A4170C9426010C9426010C94260110
:100040000C9426010C9426010C9426010C94260194
:100050000C9426010C9426010C9426010C94A00CFF
:100060000C9426010C94140D0C94EA0C0C942601AB
:100070000C9426010C9426010C9426010C94260164
:100080000C9426010C9426010C9426010C94260154
:100090000C9426010C9426010C9426010C94260144
:1000A0000C9426010C9426010C9426010C94260134
:1000B0000C9426010C9426010C9426010C94260124
:1000C0000C9426010C9426010C9426010C94260114
:1000D0000C9426010C9426010C9426010C94260104
:1000E0000C9426016364696E6F70737578585B00B9
:1000F00000000A0B02090C0D0E08070304010000A2
:1001000000000000000000000000000000000000EF
:1001100000000000000000000000000012111000AC
:1001200000000000000000000000000000000000CF
:1001300000000000000000002200250028002B0025
:100140002E003100340002010000050108010B01FE
:1001500000002100240027002A002D003000330079
:1001600001010000040107010A0105050505070555
:1001700008080808020202020A0A08080404040423
:10018000010101010101010103030303030303034F
:10019000040707070C0C0C0C0C0C0C0C02020202DE
:1001A00006060606060606060B0B0B0B0B0B0B0BC7
:1001B0000102102020080810204010204080020179
:1001C000020108040201010204081020408080405E
:1001D000201008040201800402018040201008045D
:1001E00002010804020101020408102040800102FB
:1001F000040810204080EF1811241FBECFEFD1E279
:10020000DEBFCDBF12E0A0E0B2E0E4EEF0E400E03B
:100210000BBF02C007900D92A43BB107D9F72DE0A8
:10022000A4EBB2E001C01D92AE3AB207E1F710E0D4
:10023000CCEFD0E004C02197FE010E94F31CCB3F1D
:10024000D107C9F70E94A7170C9470200C940000E6
:1002500090E0FC01E055FE4F249186599E4FFC0131
:100260008491882399F090E0880F991FFC01E05B4E
:10027000FE4FA591B491FC01EA5CFE4F85919491EB
:100280008FB7F894EC91E22BEC938FBF0895AF9267
:10029000BF92CF92DF92EF92FF920F931F93CF9373
:1002A000DF936C017B018B01040F151FEB015E01D5
:1002B000AE18BF08C017D10759F06991D601ED916A
:1002C000FC910190F081E02DC6010995892B79F709
:1002D000C501DF91CF911F910F91FF90EF90DF90BB
:1002E000CF90BF90AF900895FC01538D448D252F82
:1002F00030E0842F90E0821B930B541710F0CF96C0
:10030000089501970895FC01918D828D981761F0F1
:10031000A28DAE0FBF2FB11D5D968C91928D9F5F08
:100320009F73928F90E008958FEF9FEF0895FC01E7
:10033000918D828D981731F0828DE80FF11D858D9A
:1003400090E008958FEF9FEF0895FC01918D228D2D
:10035000892F90E0805C9F4F821B91098F739927B2
:10036000089584EB9CE00E94A50121E0892B09F40B
:1003700020E0822F0895FC01A48DA80FB92FB11D94
:10038000A35ABF4F2C91848D90E001968F739927CB
:10039000848FA689B7892C93A089B1898C918370A9
:1003A00080648C93938D848D981306C00288F389A2
:1003B000E02D80818F7D80830895EF92FF920F93CF
:1003C0001F93CF93DF93EC0181E0888F9B8D8C8D01
:1003D00098131AC0E889F989808185FF15C09FB7F5
:1003E000F894EE89FF896083E889F98980818370B8
:1003F000806480839FBF81E090E0DF91CF911F9167
:100400000F91FF90EF900895F62E0B8D10E00F5F87
:100410001F4F0F731127E02E8C8D8E110CC00FB65D
:1004200007FCFACFE889F989808185FFF5CFCE01F5
:100430000E94BB01F1CFEB8DEC0FFD2FF11DE35AB4
:10044000FF4FF0829FB7F8940B8FEA89FB89808178
:100450008062CFCF682F84EB9CE00C94DD01CF93BA
:10046000DF93EC01888D8823B9F0AA89BB89E889DC
:10047000F9898C9185FD03C0808186FD0DC00FB682
:1004800007FCF7CF8C9185FFF2CF808185FFEDCF00
:10049000CE010E94BB01E9CFDF91CF91089580E0AA
:1004A00090E0892B29F00E94B10181110E94000087
:1004B00080E090E0892B49F080E090E0892B29F0E2
:1004C0000E94000081110E94000080E090E0892BD2
:1004D00049F080E090E0892B29F00E940000811112
:1004E0000E94000080E090E0892B49F080E090E0DD
:1004F000892B29F00E94000081110C9400000895BE
:10050000282F30E0F901E051FF4F9491F901E055B7
:10051000FE4F849126593E4FF9012491222309F47C
:1005200033C0992301F191509231E8F4E92FF0E0C2
:10053000E456FD4F0C94F31CCD02D102AE02C5026D
:10054000C902B302D402DA02DE02E402E802EC02DB
:10055000F202F602B302FA02000304039091800053
:100560009F7790938000E22FF0E0EE0FFF1FEA5C90
:10057000FE4FA591B4919FB7F894EC91611148C0DA
:1005800080958E238C939FBF0895909180009F7DCE
:10059000E8CF90918000977FE4CF94B59F7794BD8A
:1005A000E2CF94B59F7DFBCF9091B0009F77909361
:1005B000B000D9CF9091B0009F7DF9CF909190007D
:1005C0009F7790939000CFCF909190009F7DF9CF2F
:1005D00090919000977FF5CF9091A0009F77909396
:1005E000A000C1CF9091A0009F7DF9CF9091A00075
:1005F000977FF5CF909120019F7790932001B3CF03
:10060000909120019F7DF9CF90912001977FF5CFA8
:100610008E2BB8CF1F93CF93DF93182FEB010E943F
:100620002801209739F460E0812FDF91CF911F914D
:100630000C948002CF3FD10511F461E0F5CFE12F9A
:10064000F0E0E051FF4FE491E150E23108F0B1C039
:10065000F0E0E35DFC4F0C94F31C3F0347034C03B5
:1006600056036003D9036A0372037A0384038E037B
:100670009803A703B103D903BB03C503CF0384B514
:10068000806884BDC7BDDF91CF911F91089584B567
:10069000806284BDC8BDF7CF809180008068809360
:1006A0008000D0938900C0938800EDCF80918000B6
:1006B000806280938000D0938B00C0938A00E3CF48
:1006C00080918000886080938000D0938D00C093DB
:1006D0008C00D9CF8091B00080688093B000C09327
:1006E000B300D1CF8091B00080628093B000C093FE
:1006F000B400C9CF80919000806880939000D0931F
:100700009900C0939800BFCF809190008062809341
:100710009000D0939B00C0939A00B5CF8091900039
:10072000886080939000D0939D00C0939C00ABCFD5
:100730008091A00080688093A0008091A0008F7BB2
:100740008093A000D093A900C093A8009CCF809173
:10075000A00080628093A000D093AB00C093AA0059
:1007600092CF8091A00088608093A000D093AD00CC
:10077000C093AC0088CF80912001806880932001D5
:10078000D0932901C09328017ECF809120018062FF
:1007900080932001D0932B01C0932A0174CF8091C4
:1007A0002001886080932001D0932D01C0932C01FB
:1007B0006ACFC038D1050CF040CF35CF90917B0087
:1007C000977F90937B008653806480937C00809118
:1007D0007A00806480937A0080917A0086FDFCCF55
:1007E0008091780090917900089562E0462E512C16
:1007F000612C712CC0915F0CD091600C8E01000FA8
:10080000111F000F111F01501D4F20E030E048EC78
:1008100052E4F80160817181828193810E940E1BF4
:100820009B01AC0160916B0C70916C0C80916D0C14
:1008300090916E0C0E949C1A6B017C018BE30E94CC
:10084000DE039C01990F440B550B285F3240410990
:100850005109A4E6B0E00E94601A28EC30E040E0C4
:1008600050E00E94411ACA01B9010E94B81BF80168
:10087000608371838283938320E030E048EC52E40C
:100880000E940E1BA70196010E949D1A6B017C011C
:10089000C0926B0CD0926C0CE0926D0CF0926E0CCE
:1008A0006091000270910102072E000C880B990BD9
:1008B0000E94B81B9B01AC01C701B6010E949C1AA3
:1008C0000E94801B6530710514F064E070E06C3F9D
:1008D000FFEF7F0714F46CEF7FEFCB0177FF04C0CD
:1008E00088279927861B970B9B01220F331F620FC6
:1008F000731F689F9001699F300D789F300D112400
:100900000197289F6001299FD00C389FD00C11249B
:100910000D2C000CEE08FF08C092E702D092E8020E
:10092000E092E902F092EA0246015701F7FE07C0A1
:100930008824992454018C189D08AE08BF08C7016B
:10094000B601680D791D8A1D9B1DA30192010E94AD
:10095000411AB90183E00E940A03C501B4016C1970
:100960007D098E099F09A30192010E94411AB901D4
:1009700082E00E940A03C336D10534F42196D09355
:10098000600CC0935F0C36CF1092600C10925F0C1D
:1009900031CF37E0332E42E0442E512C612C712CA4
:1009A000C091690CD0916A0C8E01000F111F000FCD
:1009B000111F0153154F20E030E048EC52E4F801DC
:1009C00060817181828193810E940E1B9B01AC0129
:1009D00060917F0C7091800C8091810C9091820CC1
:1009E0000E949C1A6B017C018AE30E94DE039C0139
:1009F000990F440B550B2158314041095109A4EB83
:100A0000B0E00E94601A26E831E040E050E00E9429
:100A1000411ACA01B9010E94B81BF80160837183B1
:100A20008283938320E030E048EC52E40E940E1B66
:100A3000A70196010E949D1A6B017C01C0927F0C58
:100A4000D092800CE092810CF092820C60910A02AC
:100A500070910B02072E000C880B990B0E94B81B9B
:100A60009B01AC01C701B6010E949C1A0E94801B29
:100A70006530710514F064E070E06C3FFFEF7F07B4
:100A800014F46CEF7FEFCB0177FF04C08827992720
:100A9000861B970B369E9001379E300D1124289FA0
:100AA000A001299F500D389F500D11240197489F98
:100AB0006001499FD00C589FD00C11248AE6C816BB
:100AC0008FEFD8060CF447C00D2C000CEE08FF0881
:100AD000E7E9CE16D104E104F1042CF096E9C92E21
:100AE000D12CE12CF12CC092FB02D092FC02E092BE
:100AF000FD02F092FE0246015701F7FE07C088246E
:100B0000992454018C189D08AE08BF08C501B40192
:100B10006C0D7D1D8E1D9F1DA30192010E94411A27
:100B2000B90184E00E940A03C501B4016C197D0972
:100B30008E099F09A30192010E94411AB90185E023
:100B40000E940A03C336D1056CF42196D0936A0C37
:100B5000C093690C25CF8AE6C82EDD24DA94ED2CEB
:100B6000FD2CC1CF10926A0C1092690C19CF37E09E
:100B7000332E42E0442E512C612C712CC091670C15
:100B8000D091680C8E01000F111F000F111F015C26
:100B9000164F20E030E048EC52E4F80160817181AA
:100BA000828193810E940E1B9B01AC0160917B0CA2
:100BB00070917C0C80917D0C90917E0C0E949C1A0F
:100BC0006B017C0186E30E94DE039C01990F440BBC
:100BD000550B2F59314041095109A4EBB0E00E9457
:100BE000601A22E731E040E050E00E94411ACA0159
:100BF000B9010E94B81BF8016083718382839383DB
:100C000020E030E048EC52E40E940E1BA701960160
:100C10000E949D1A6B017C01C0927B0CD0927C0CCF
:100C2000E0927D0CF0927E0C6091080270910902B6
:100C3000072E000C880B990B0E94B81B9B01AC017E
:100C4000C701B6010E949C1A0E94801B6530710585
:100C500014F064E070E06C3FFFEF7F0714F46CEF7A
:100C60007FEFCB0177FF04C088279927861B970B5E
:100C7000369E9001379E300D1124289FA001299F98
:100C8000500D389F500D11240197489F6001499FD6
:100C9000D00C589FD00C11248AE6C8168FEFD806C6
:100CA0000CF447C00D2C000CEE08FF08E7E9CE1647
:100CB000D104E104F1042CF096E9C92ED12CE12CE9
:100CC000F12CC092F702D092F802E092F902F09271
:100CD000FA0246015701F7FE07C0882499245401FF
:100CE0008C189D08AE08BF08C501B4016C0D7D1DB0
:100CF0008E1D9F1DA30192010E94411AB90187E038
:100D00000E940A03C501B4016C197D098E099F096F
:100D1000A30192010E94411AB90186E00E940A03D0
:100D2000C336D1056CF42196D093680CC093670C40
:100D300025CF8AE6C82EDD24DA94ED2CFD2CC1CF18
:100D40001092680C1092670C19CF37E0332E42E0F6
:100D5000442E512C612C712CC091650CD091660CE5
:100D60008E01000F111F000F111F0155184F20E0B9
:100D700030E048EC52E4F801608171818281938116
:100D80000E940E1B9B01AC016091770C7091780C56
:100D90008091790C90917A0C0E949C1A6B017C01D5
:100DA00088E30E94DE039C01990F440B550B2757E3
:100DB000310941095109A4EBB0E00E94601A26E113
:100DC00032E040E050E00E94411ACA01B9016A5580
:100DD0007109810991090E94B81BF8016083718330
:100DE0008283938320E030E048EC52E40E940E1BA3
:100DF000A70196010E949D1A6B017C01C092770C9D
:100E0000D092780CE092790CF0927A0C6091060204
:100E100070910702072E000C880B990B0E94B81BDB
:100E20009B01AC01C701B6010E949C1A0E94801B65
:100E30006530710514F064E070E06C3FFFEF7F07F0
:100E400014F46CEF7FEFCB0177FF04C0882799275C
:100E5000861B970B369E9001379E300D1124289FDC
:100E6000A001299F500D389F500D11240197489FD4
:100E70006001499FD00C589FD00C11248AE6C816F7
:100E80008FEFD8060CF447C00D2C000CEE08FF08BD
:100E9000E7E9CE16D104E104F1042CF096E9C92E5D
:100EA000D12CE12CF12CC092F302D092F402E0920A
:100EB000F502F092F60246015701F7FE07C08824BA
:100EC000992454018C189D08AE08BF08C501B401CF
:100ED0006C0D7D1D8E1D9F1DA30192010E94411A64
:100EE000B90188E00E940A03C501B4016C197D09AB
:100EF0008E099F09A30192010E94411AB90189E05C
:100F00000E940A03C336D1056CF42196D093660C77
:100F1000C093650C21CF8AE6C82EDD24DA94ED2C2F
:100F2000FD2CC1CF1092660C1092650C15CF37E0E6
:100F3000332E42E0442E512C612C712CC091630C55
:100F4000D091640C8E01000F111F000F111F015E64
:100F5000194F20E030E048EC52E4F80160817181E3
:100F6000828193810E940E1B9B01AC016091730CE6
:100F70007091740C8091750C9091760C0E949C1A63
:100F80006B017C0187E30E94DE039C01990F440BF7
:100F9000550B2E55310941095109A4EBB0E00E94CF
:100FA000601A28E132E040E050E00E94411ACA0194
:100FB000B9010E94B81BF801608371838283938317
:100FC00020E030E048EC52E40E940E1BA70196019D
:100FD0000E949D1A6B017C01C092730CD092740C1C
:100FE000E092750CF092760C60910402709105020B
:100FF000072E000C880B990B0E94B81B9B01AC01BB
:10100000C701B6010E949C1A0E94801B65307105C1
:1010100014F064E070E06C3FFFEF7F0714F46CEFB6
:101020007FEFCB0177FF04C088279927861B970B9A
:10103000369E9001379E300D1124289FA001299FD4
:10104000500D389F500D11240197489F6001499F12
:10105000D00C589FD00C11248AE6C8168FEFD80602
:101060000CF447C00D2C000CEE08FF08E7E9CE1683
:10107000D104E104F1042CF096E9C92ED12CE12C25
:10108000F12CC092EF02D092F002E092F102F092C5
:10109000F20246015701F7FE07C088249924540143
:1010A0008C189D08AE08BF08C501B4016C0D7D1DEC
:1010B0008E1D9F1DA30192010E94411AB9018BE070
:1010C0000E940A03C501B4016C197D098E099F09AC
:1010D000A30192010E94411AB9018AE00E940A0309
:1010E000C336D1056CF42196D093640CC093630C85
:1010F00025CF8AE6C82EDD24DA94ED2CFD2CC1CF55
:101100001092640C1092630C19CF37E0332E42E03A
:10111000442E512C612C712C61E08EE00E948002E3
:10112000C091610CD091620C8E01000F111F000F55
:10113000111F01571B4F20E030E048EC52E4F8014A
:1011400060817181828193810E940E1B9B01AC01A1
:1011500060916F0C7091700C8091710C9091720C79
:101160000E949C1A6B017C0189E30E94DE039C01B2
:10117000990F440B550B2656314041095109AAE5F8
:10118000B0E00E94601A24E131E040E050E00E94AB
:10119000411ACA01B9010E94B81BF801608371832A
:1011A0008283938320E030E048EC52E40E940E1BDF
:1011B000A70196010E949D1A6B017C01C0926F0CE1
:1011C000D092700CE092710CF092720C609102025D
:1011D00070910302072E000C880B990B0E94B81B1C
:1011E0009B01AC01C701B6010E949C1A0E94801BA2
:1011F0006530710514F064E070E06C3FFFEF7F072D
:1012000014F46CEF7FEFCB0177FF04C08827992798
:10121000861B970B369E9001379E300D1124289F18
:10122000A001299F500D389F500D11240197489F10
:101230006001499FD00C589FD00C112481E0C81642
:101240008FEFD8060CF447C00D2C000CEE08FF08F9
:10125000EFEFCE16D104E104F10429F024F0C12C03
:10126000D12C7601CA94C092EB02D092EC02E092AB
:10127000ED02F092EE0246015701F7FE07C0882406
:10128000992454018C189D08AE08BF08C501B4010B
:101290006C0D7D1D8E1D9F1DA30192010E94411AA0
:1012A000B9018DE00E940A03C501B4016C197D09E2
:1012B0008E099F09A30192010E94411AB9018CE095
:1012C0000E940A03C336D1056CF42196D093620CB8
:1012D000C093610C21CFCC24C394DD24DA94ED2C8F
:1012E000FD2CC1CF1092620C1092610C15CFFC0145
:1012F00001900020E9F73197AF01481B590BBC0161
:1013000084EB9CE00C9447018F929F92AF92BF9226
:101310000F931F93CF93DF93CDB7DEB7A1970FB68F
:10132000F894DEBF0FBECDBF19A2423008F44AE0E8
:101330008E010F5D1F4F842E912CB12CA12CA50185
:1013400094010E946B1AE62FB901CA01EA30F4F445
:10135000E05DD801EE938D01232B242B252B79F70B
:1013600090E080E0109719F0CD010E947709A196D6
:101370000FB6F894DEBF0FBECDBFDF91CF911F91A6
:101380000F91BF90AF909F908F900895E95CE1CF4F
:10139000CF93DF930E947709EC0185E292E00E94EF
:1013A00077098C0F9D1FDF91CF9108954F925F9227
:1013B0006F927F928F929F92AF92BF92CF92DF9265
:1013C000EF92FF920F931F93CF936B017C01742ECA
:1013D000AC019B010E94DA1C882399F088E292E01C
:1013E000CF911F910F91FF90EF90DF90CF90BF9022
:1013F000AF909F908F907F906F905F904F900C94E4
:10140000770946015701E894B7F82FEF3FEF4FE710
:101410005FE7C501B4010E94DA1C81110DC02FEFF6
:101420003FEF4FE75FE7C501B4010E94091B1816A3
:101430001CF48CE292E0D4CF2FEF3FEF4FE75FE454
:10144000C701B6010E94681C18161CF480E392E0E4
:10145000C7CF2FEF3FEF4FE75FECC701B6010E9408
:10146000091B87FDF3CF20E030E0A901C701B601D9
:101470000E94091B10E000E087FF08C08DE20E9477
:101480002A028C01F7FAF094F7F8F094C0E060E0DB
:1014900070E080E09FE37C1641F020E030E040E225
:1014A00051E40E940E1BCF5FF6CFA70196010E9468
:1014B0009D1A2B013C010E94871B4B015C014AE0F5
:1014C0000E9484097C01E00EF11ECC23B1F1C5011C
:1014D000B4010E94B61B9B01AC01C301B2010E9482
:1014E0009C1A4B015C018EE20E942A02E80EF91E52
:1014F000C15018F120E030E040E251E4C501B401F0
:101500000E946D1C2B013C010E94871B4B01B12CDA
:10151000A12C4AE0C501B4010E948409E80EF91E1D
:10152000C501B4010E94B61B9B01AC01C301B2010D
:101530000E949C1A4B015C01DBCFC701CF911F9128
:101540000F91FF90EF90DF90CF90BF90AF909F9062
:101550008F907F906F905F904F9008950F931F939F
:101560008DE00E9428018CE00E9428018BE00E94FF
:1015700028018AE00E94280188E00E94280189E071
:101580000E94280187E00E94280186E00E9428012D
:1015900084E00E94280185E00E94280183E00E94E7
:1015A000280182E00E9428018EE00E94280110E0BC
:1015B00000E021E040E850E064E372E08BE19BE072
:1015C0000E94931621E040E850E06DE372E085E868
:1015D00098E00E94931621E040E850E063E472E056
:1015E00087E997E00E94931621E040E850E069E423
:1015F00072E085EA96E00E94931621E040E850E010
:101600006FE472E087EB95E00E94931621E040E8DA
:1016100050E065E572E089EC94E00E94931621E0C9
:1016200040E850E06FE872E085EF93E00E94931687
:101630001F910F910895E091C40CF091C50C82E0C8
:101640008083E091C00CF091C10C1082E091C20C3B
:10165000F091C30C8FEC80831092CC0CE091C80CFD
:10166000F091C90C86E08083E091C60CF091C70C24
:10167000808180618083E091C60CF091C70C8081ED
:1016800088608083E091C60CF091C70C80818068EF
:101690008083E091C60CF091C70C80818F7D8083A0
:1016A0008BE592E00E94C8098EE692E00E94C8098C
:1016B00080E892E00E94C80906E010E092E0292E3E
:1016C00092E0392E24E9E22E22E0F22E3FEBC32EE7
:1016D00032E0D32E1092BF021092C0021092C102CB
:1016E0001092C2021092C30280E28093BE02CFEB3E
:1016F000D2E084EB9CE00E94A501892B49F5809102
:10170000BC029091BD020196B8010E94DF1C9C01B1
:101710009093BD028093BC02FC01EE0FFF1FEE0F01
:10172000FF1FE559F34F608171818281938142E00F
:101730001216130634F40E94D60980E20E942A028F
:10174000D8CF0E94D60985E292E00E947709D1CFD6
:1017500084EB9CE00E9483018093BE0289938A30CF
:1017600039F08D3029F027EE32E02C173D0709F6CD
:1017700080E092E09F938F9388EB92E09F938F930A
:101780008AEB92E09F938F9386E092E09F938F93F2
:1017900084E092E09F938F933F922F92FF92EF927B
:1017A000DF92CF920E94201D809100029091010251
:1017B0002DB73EB7205F3F4F0FB6F8943EBF0FBE28
:1017C0002DBF8536910514F084E690E097FF02C0A6
:1017D00090E080E0909301028093000280910202E9
:1017E000909103028637910514F085E790E08838E0
:1017F0003FEF930714F488E89FEF909303028093E0
:1018000002028091040290910502853B910514F03B
:1018100084EB90E097FF02C090E080E09093050297
:101820008093040280910602909107028B35910506
:1018300014F08AE590E0863A2FEF920714F486EAD6
:101840009FEF90930702809306022091BA02309195
:10185000BB02253B310514F024EB30E037FF02C01A
:1018600030E020E03093BB022093BA0245E0429F73
:10187000C001439F900D1124B8010E94DF1C625DDE
:101880007109E091B802F091B902E617F7077CF010
:101890004BEF4203C001439F900D1124B8010E94F9
:1018A000DF1C6E527F4FE617F7070CF4BF01EB0108
:1018B0006B35710514F0CAE5D0E0C63A8FEFD80752
:1018C00014F4C6EADFEFD093B902C093B802B901AD
:1018D000330F880B990B0E94B81B4B015C01BE01B2
:1018E000DD0F880B990B0E94B81B23E333E343E31E
:1018F00050E40E946D1C20E030E040E05FE30E9475
:101900006D1C2B013C01AC019B01C501B4010E947F
:101910009D1A0E94801B7093090260930802A30124
:101920009201C501B4010E949C1A0E94801B709311
:101930000B0260930A028FEB92E00E94C809CACEA4
:101940001F920F920FB60F9211242F933F938F93F4
:101950009F93AF93BF938091AB0C9091AC0CA091EF
:10196000AD0CB091AE0C3091AA0C23E0230F2D37B3
:1019700058F50196A11DB11D2093AA0C8093AB0CC4
:101980009093AC0CA093AD0CB093AE0C8091A60CD0
:101990009091A70CA091A80CB091A90C0196A11D43
:1019A000B11D8093A60C9093A70CA093A80CB093A4
:1019B000A90CBF91AF919F918F913F912F910F9063
:1019C0000FBE0F901F90189526E8230F0296A11DB9
:1019D000B11DD2CF1F920F920FB60F9211240BB6EA
:1019E0000F922F933F934F935F936F937F938F93B8
:1019F0009F93AF93BF93EF93FF9384EB9CE00E9480
:101A0000BB01FF91EF91BF91AF919F918F917F911A
:101A10006F915F914F913F912F910F900BBE0F905F
:101A20000FBE0F901F9018951F920F920FB60F9236
:101A300011240BB60F922F938F939F93EF93FF93E5
:101A4000E091C40CF091C50C8081E091CA0CF0913A
:101A5000CB0C82FD1DC090818091CD0C8F5F8F7368
:101A60002091CE0C821741F0E091CD0CF0E0EC54C7
:101A7000F34F958F8093CD0CFF91EF919F918F91B4
:101A80002F910F900BBE0F900FBE0F901F901895C7
:101A90008081F2CF8091A80D882331F08091870C4E
:101AA000882321F080E0089581E0089582E0089580
:101AB000E091530DF091540D8081811107C08FEF9B
:101AC0009FEF9093A30C8093A20C0895E091530D87
:101AD000F091540D0580F681E02D80819181F1CF48
:101AE000FC01DB010FB6F8940F924091B10C5091BC
:101AF000B20C2D913C9111972F3F320711F181814A
:101B000092816091B30C7081761749F0481759079C
:101B100030F01D921C9281E00F900FBE0895481B7B
:101B2000590B42175307A8F7241B350B2D933C93F1
:101B30008091B30C80838091B10C9091B20C928310
:101B4000818380E0E9CF0FB6F8940F928091B10CB9
:101B50009091B20C0F900FBE08958091870C8F5F0B
:101B60008093870C08950FB6F8940F92FC01928D24
:101B70000F900FBE81E0911180E00895CF93DF9325
:101B80009C01FB01DC011196CD91DC91D383C283D2
:101B90008C819D81958384838C819D81DC0113964A
:101BA0007C936E9312977D836C8331872087F90134
:101BB00080818F5F8083DF91CF910895CF93DF93F2
:101BC000FC01A085B1858281938124813581EC015E
:101BD0003D832C83C481D5819B838A8311968D910B
:101BE0009C9112978E179F0721F41296DC93CE9347
:101BF0001197118610868C9181508C938C91DF9176
:101C0000CF9108950F931F93CF93DF93DC01159627
:101C1000ED91FC91C681D7818E01045F1F4FC801F1
:101C20000E94DE0D8091870C811125C00A50110998
:101C3000C8010E94DE0D8E899091A60D981710F4B0
:101C40008093A60DB9E08B9FC0011124B8018E5777
:101C5000924F0E94BE0DE091B402F091B5029E89B0
:101C60008689891760F481E08093850CDF91CF919C
:101C70001F910F910895B80187E69DE0EACF80E0BB
:101C8000F5CFEF92FF920F931F93CF93DF93EC0169
:101C90000FB6F8940F921E8D7C0181E1E80EF11CC5
:101CA00001E01116D4F08FEF8E8F0F900FBE0FB69C
:101CB000F8940F921D8D7E0188E0E80EF11C01E082
:101CC0001116B4F08FEF8D8F0F900FBEDF91CF9173
:101CD0001F910F91FF90EF9008958989882319F340
:101CE000C7010E94020E81110093850C1150D9CFBB
:101CF0008885882339F3C7010E94020E8111009361
:101D0000850C1150DDCF0F931F93CF93DF938C0180
:101D1000FB0180819181D80113968F3F9807F1F4E0
:101D2000E801AF81B88512968D919C9113979383AA
:101D30008283EC01FD83EC83B583A4831396FC932B
:101D4000EE93129711870087F80180818F5F80835F
:101D5000DF91CF911F910F910895D90112962D9186
:101D60003C911397E9014881598184179507A8F799
:101D7000DACFFC0173836283918780874617570708
:101D800090F0421B530B8485958548175907C8F47A
:101D9000BF016E5F7F4F80918A0C90918B0C0E94E7
:101DA000830E80E008954217530718F462177307F3
:101DB00040F4BF016E5F7F4F80918C0C90918D0C31
:101DC000EECF81E00895FF920F931F93CF93DF939F
:101DD000EC01F62E0091B10C1091B20C8091B4027E
:101DE0009091B50202960E94DE0DCF3FDC0789F488
:101DF000FF2079F06091B4027091B5026E5F7F4F61
:101E000085E59DE0DF91CF911F910F91FF900C949C
:101E1000BE0DC00FD11FE091B402F091B502D38383
:101E2000C2836091B4027091B502C017D10768F403
:101E30008091510D9091520D6E5F7F4FDF91CF9148
:101E40001F910F91FF900C94830E8091530D9091F0
:101E5000540D6E5F7F4F0E94830E8091A20C909173
:101E6000A30CC817D90720F4D093A30CC093A20CDD
:101E7000DF91CF911F910F91FF900895FC01039680
:101E8000928381832FEF3FEF34832383968385836F
:101E900090878783108208950F920FB6F8940F925F
:101EA0000BB60F921F9211242F923F924F925F9286
:101EB0006F927F928F929F92AF92BF92CF92DF925A
:101EC000EF92FF920F931F932F933F934F935F9344
:101ED0006F937F938F939F93AF93BF93CF93DF9332
:101EE000EF93FF93A091B402B091B5020DB60D929D
:101EF0000EB60D928091870C882321F081E08093AB
:101F0000850C5FC01092850CA091B402B091B5020F
:101F1000E091B402F091B5022D913C918789908DAA
:101F200082179307A8F08091B4029091B502809136
:101F3000B4029091B502279A2F9A2FEF87EA91E683
:101F4000215080409040E1F700C000001F9AF5CF7B
:101F50002091A60D89E001C02150422F50E0849FBE
:101F6000F001859FF00D1124EE57F24F90819923D7
:101F700099F3A181B28112960D90BC91A02DB283EC
:101F8000A183289FC00111248B57924FA817B9072E
:101F900029F412968D919C919283818389E0849F8C
:101FA000F001859FF00D1124EE57F24F0180F28170
:101FB000E02D868197819093B5028093B40220939F
:101FC000A60DA091B402B091B502CD91CDBFDD9127
:101FD000DEBFFF91EF91DF91CF91BF91AF919F91C4
:101FE0008F917F916F915F914F913F912F911F91B1
:101FF0000F91FF90EF90DF90CF90BF90AF909F90A8
:102000008F907F906F905F904F903F902F901F9098
:102010000F900BBE0F900FBE0F9008957F928F927E
:102020009F92AF92BF92CF92DF92EF92FF920F9367
:102030001F93CF93DF938091870C0FB6F8940F9284
:102040008091870C81508093870C8091870C882326
:1020500089F080E00F900FBEDF91CF911F910F911B
:10206000FF90EF90DF90CF90BF90AF909F908F90B8
:102070007F9008958091A90D882359F3D0E0C0E0A6
:1020800029E0F22EEE24E39429C0E0916C0DF0914A
:102090006D0DC681D781CE010C960E94DE0D8E019A
:1020A0000E5F1F4FC8010E94DE0D8E899091A60D14
:1020B000981710F48093A60D8F9DC0011124B801CC
:1020C0008E57924F0E94BE0DE091B402F091B5027E
:1020D0009E898689981710F0E092850C8091670D93
:1020E0008111D3CFCD2B11F00E94580DE090830CBD
:1020F000F090840CE114F10409F4B4C089E0A82E36
:1021000077247394CC24CA94DC2C8091870C8111A1
:1021100097C0C091B10CD091B20C2196D093B20C63
:10212000C093B10C2097E1F4E091530DF091540D60
:1021300080818091530D9091540D2091510D3091DB
:10214000520D3093540D2093530D9093520D809364
:10215000510D8091B30C8F5F8093B30C0E94580D8A
:102160008091A20C9091A30CB12CC817D90708F04C
:102170005BC0E091B402F091B502E689AE9EF00139
:102180001124EE57F24F8081823010F0BB24B394BB
:102190008091850C811103C0BB2009F45AC0709254
:1021A000850C57C0E091530DF091540D0580F681D8
:1021B000E02D06811781D80112968D919C91C81748
:1021C000D90728F49093A30C8093A20CD2CF480196
:1021D000B2E08B0E911CC4010E94DE0DF8018489CF
:1021E0009589892B21F0C8010C960E94DE0DD8013B
:1021F00056968C919091A60D981710F48093A60D89
:102200008A9DC0011124B4018E57924F0E94BE0DC9
:10221000E091B402F091B502D80156969C9186895E
:10222000981710F0BB24B394E091530DF091540D26
:1022300080818111B7CFD092A30CC092A20C99CF0C
:102240008091830C9091840C01969093840C8093E0
:10225000830CB1E0EB1AF10809F057CF1092840C0F
:102260001092830C8091850C882309F4F2CE0E9491
:102270004C0F81E0EFCEAF92BF92CF92DF92EF9200
:10228000FF920F931F93CF93DF9300D000D01F9244
:10229000CDB7DEB78C017B011D821C820E944A0DE6
:1022A00080E0680128E0C20ED11C0FB6F8940F92AE
:1022B000F801228D938D291708F07CC0D28C448DB3
:1022C00041115EC080819181892B11F080E009C0AD
:1022D000E480F580E114F10421F580E0F801158235
:1022E0001482D394F801D28E9189992321F0C801E8
:1022F00041960E94020E81110E944C0F0F900FBE5A
:1023000081E00F900F900F900F900F90DF91CF9181
:102310001F910F91FF90EF90DF90CF90BF90AF9003
:1023200008958091B4029091B502F70182A1815085
:1023300082A3268991A1291781F28111CECF57015D
:10234000F2E0AF0EB11CC5010E94DE0DF70181A1C4
:10235000868B24E030E0281B310935872487909153
:10236000A60D981710F48093A60DF9E08F9FC00179
:102370001124B5018E57924F0E94BE0D81E0AECF61
:1023800050E0B701828193810E94101DF801848D75
:1023900022813381820F932F911D93838283248125
:1023A00035818217930708F491CF808191819383BF
:1023B00082838CCF2C813D81232B21F40F900FBE83
:1023C00080E09FCF811109C08091B30C89838091F7
:1023D000B10C9091B20C9B838A830F900FBE0E9428
:1023E000AD0D0FB6F8940F92F801858D8F3F09F46B
:1023F000158EF801868D8F3F09F4168E0F900FBE53
:10240000BE016C5F7F4FCE0101960E94700D81115D
:102410002AC00FB6F8940F92F801928D838D0F9019
:102420000FBE98131AC0AC80BD806091B402709149
:10243000B502645F7F4FC6010E94830E61E0C50153
:102440000E94E30EC8010E94410E0E940E108111ED
:1024500002C00E944C0F81E028CFC8010E94410EAB
:102460000E940E10F8CFC8010E94410E0E940E106B
:10247000A7CF0F931F93CF93DF9300D000D01F926D
:10248000CDB7DEB70091AF0C1091B00C011511055E
:10249000B9F019827B836A839D838C830E944A0DE5
:1024A000BE016F5F7F4FC8010E943B110F900F90DC
:1024B0000F900F900F90DF91CF911F910F91089582
:1024C00080E0F4CFEF92FF920F931F93CF93DF93AF
:1024D000E0918C0CF0918D0C8081811113C0809162
:1024E0008A0C90918B0C90938D0C80938C0CF093B4
:1024F0008B0CE0938A0CDF91CF911F910F91FF908D
:10250000EF9008950580F681E02D00811181C6814C
:10251000D7817E0182E0E80EF11CC7010E94DE0D2A
:10252000E889F989CE0109958A8982FFD1CF8C8506
:102530009D85800F911F0817190760F49B838A837C
:10254000D987C887B70180918C0C90918D0C0E941F
:10255000830EBECFB801CE010E943912B9CF0F92BF
:102560000FB6F8940F920BB60F921F9211242F9270
:102570003F924F925F926F927F928F929F92AF9213
:10258000BF92CF92DF92EF92FF920F931F932F9300
:102590003F934F935F936F937F938F939F93AF93EB
:1025A000BF93CF93DF93EF93FF93A091B402B091C9
:1025B000B5020DB60D920EB60D9213BE8091870C2A
:1025C0008111F8C08091B10C9091B20C019690935A
:1025D000B20C8093B10C0097A9F5E091530DF091E6
:1025E000540D20812091530D3091540D4091510D87
:1025F0005091520D5093540D4093530D3093520D02
:102600002093510D2091B30C2F5F2093B30CE091D8
:10261000530DF091540D2081211107C02FEF3FEF92
:102620003093A30C2093A20C0DC0E091530DF091B8
:10263000540D0580F681E02D208131813093A30C6B
:102640002093A20C2091A20C3091A30C8217930727
:1026500010F420E09BC020E019E0E091530DF091D0
:10266000540D3081311107C08FEF9FEF9093A30C71
:102670008093A20C8BC0E091530DF091540D058016
:10268000F681E02D0680F781E02D42815381841789
:10269000950728F45093A30C4093A20C77C0AF0188
:1026A0004E5F5F4FA285B38564817581E680F780B8
:1026B000EB01FD82EC82C681D7817B836A83119610
:1026C0006D917C9112974617570721F41296DC936F
:1026D000CE931197138612863C9131503C933C91D6
:1026E000A489B5891097F9F066857785E088F18827
:1026F000EB01FD82EC82C089D1897B836A831196CC
:10270000ED90FC901297BF01645F7F4FE616F706CD
:1027100021F41296DC93CE931197158A148A3C917A
:1027200031503C933C91A6893091A60D3A1710F494
:10273000A093A60D1A9FD0011124BD016E57724FB0
:102740007B01DB011196CD91DC91D583C4836C8133
:102750007D81778366836C817D81DB0113965C9339
:102760004E9312975D834C83F386E286E7013881AE
:102770003F5F3883A091B402B091B5024689569666
:102780003C91431708F469CF21E067CFE091B40290
:10279000F091B502E689D9E0ED9FF0011124EE57E2
:1027A000F24F8081823008F021E08091850C811108
:1027B0000EC00AC08091830C9091840C0196909376
:1027C000840C8093830C6AC0222309F467C0809133
:1027D000870C882321F081E08093850C5FC01092E4
:1027E000850CA091B402B091B502E091B402F091D1
:1027F000B5022D913C918789908D82179307A8F09F
:102800008091B4029091B5028091B4029091B5028A
:10281000279A2F9A2FEF67EA71E6215060407040A7
:10282000E1F700C000001F9AF5CF2091A60D89E0C6
:1028300001C02150422F50E0849FF001859FF00D90
:102840001124EE57F24F9081992399F3A181B2811F
:1028500012960D90BC91A02DB283A183289FC00138
:1028600011248B57924FA817B90729F412968D910E
:102870009C919283818389E0849FF001859FF00D74
:102880001124EE57F24F0180F281E02D868197816D
:102890009093B5028093B4022093A60DA091B40248
:1028A000B091B502CD91CDBFDD91DEBFFF91EF912B
:1028B000DF91CF91BF91AF919F918F917F916F9158
:1028C0005F914F913F912F911F910F91FF90EF904A
:1028D000DF90CF90BF90AF909F908F907F906F9040
:1028E0005F904F903F902F901F900F900BBE0F90D6
:1028F0000FBE0F900895CF93DF93009751F0EC0136
:102900000E94AD0DCE010E94B819DF91CF910C94B9
:102910000E10DF91CF910895CF93DF93CDB7DEB73F
:102920002A970FB6F894DEBF0FBECDBFE0918C0C96
:10293000F0918D0CF08010E000E0FF2029F0058080
:10294000F681E02D008111810E94AD0D0E94A30D42
:102950006C018091880C9091890CC816D90608F0FA
:102960007EC00E946212D092890CC092880C0E9494
:102970000E100091AF0C1091B00C1A8619860E94AF
:102980004A0D80E06801B1E1CB0ED11C0FB6F8947E
:102990000F92F801F28CFF2009F418C1448D4423F2
:1029A000C1F050E086819781840F951F97838683BD
:1029B000248135818217930720F08081918197834C
:1029C0008683D80116966D917C91CE0101960E9466
:1029D000101DFA94F801F28E8085882339F0C80121
:1029E00008960E94020E81110E944C0F0F900FBE9C
:1029F000D980D7FCBECF0C811D81D8011A968D914C
:102A00009C91892B21F0C80102960E94DE0D0E9444
:102A1000A30D7C018091880C9091890CE816F90631
:102A200010F40E946212F092890CE092880CB9E0D6
:102A3000BD1508F49ECFED2DDD0CFF0BEB5DFA4EBE
:102A4000D80152968C910C94F31CA915A915A915BF
:102A5000E115CC15DB15A915A915E115CC15D092FA
:102A6000890CC092880CFF2099F1C016D106C0F1E4
:102A70000E940E10E0918C0CF0918D0C0580F68177
:102A8000E02DE680F780C70102960E94DE0DD70197
:102A900052968C91529782FF17C01C966D917C9133
:102AA000600F711F9801A601C7010E94B90E88230B
:102AB00021F0B801C7010E943912D7015096ED915B
:102AC000FC91C701099555CF8E7FF701828BF5CF19
:102AD000E0918A0CF0918B0C8081BB24B39481111E
:102AE000B12CE090AF0CF090B00C0FB6F8940F92B0
:102AF000F701858D8F3F09F4158ED7015E968C9175
:102B00005E978F3F11F45E961C920F900FBEF701F7
:102B1000828D811114C06091B4027091B502645F1E
:102B20007F4FC70141960E94BE0DC8018C199D09B7
:102B3000BB2011F08FEF9FEF6B2D0E94E30EC701BA
:102B40000E94410E0E940E10811113CF0E944C0F63
:102B500010CF8160F801828BCA80DB806485758527
:102B60006C0D7D1D9601A701C8010E94B90E882336
:102B700009F4FFCED8015096ED91FC91C80109955A
:102B8000F801828982FFF5CE648575856C0D7D1D07
:102B9000C8010E943912EDCE8160F801828B6A81F2
:102BA0007B81758764876E0D7F1D9701A701C80122
:102BB0000E94B90EDECE81FD04C0C8010E947B14C4
:102BC000D8CE8E7FD80152968C93D3CE29853A8564
:102BD000232B19F40F900FBEA9CE811109C080914B
:102BE000B30C8E838091B10C9091B20C98878F8337
:102BF0000F900FBE0E94AD0D0FB6F8940F92D80142
:102C00005D968C915D978F3F11F45D961C92F80153
:102C1000868D8F3F09F4168E0F900FBEBE01675F41
:102C20007F4FCE0106960E94700D811125C0C8010C
:102C30000E94B30D8823D1F0E984FA846091B40234
:102C40007091B502645F7F4FC6010E94830E61E000
:102C5000C7010E94E30EC8010E94410E0E940E109F
:102C6000811102C00E944C0F81E090CEC8010E94E9
:102C7000410E0E940E10F8CFC8010E94410E0E9422
:102C80000E10C8010E94B30D882371F34FCE8091BE
:102C9000860C811109C08091820D823010F00E9453
:102CA0004C0F0E944F02F3CF0FB6F8940F92E091B1
:102CB000630DF091640DC681D781CE0102960E940A
:102CC000DE0D8091A90D81508093A90D8091860C15
:102CD00081508093860C0F900FBE8F89988D0E9433
:102CE0007B14CE010E947B14D2CFCF93DF93EC01F3
:102CF0000E94AD0DCE010E941C19EC010E940E1025
:102D0000209769F4279A2F9A2FEF80E792E02150BD
:102D100080409040E1F700C000001F9AF5CFCE013F
:102D2000DF91CF9108957F928F929F92AF92BF9241
:102D3000CF92DF92EF92FF920F931F93CF93DF9387
:102D4000982EA92E762E872E7A01B22ECA010E94C5
:102D500075166C01892B09F4D6C088E290E00E94B8
:102D60007516EC01892B09F4CBC0D88ECF8AA70148
:102D700065EA70E0C6010E94191D21E0E21AF1081F
:102D8000EF89F88DEE0DFF1D672D782DCE01499648
:102D90009B01285F3F4FDB014D91BD01DC014D934D
:102DA000CD01AB0141505109DA014C91442319F096
:102DB0006217730781F718A2BE8AB9A21AA21B86EE
:102DC0001A861D8A1C8AD987C88784E090E08B19EF
:102DD00091099D878C87DB8BCA8B84E09E012D5DDA
:102DE0003F4FD9011D928A95E9F71FA29082DF011A
:102DF0001197AC9211971C92119780E88C931197C0
:102E00001C9211971C9257971C9211971C92B49781
:102E1000F983E8830115110519F0F801D183C08306
:102E20000FB6F8940F928091A90D8F5F8093A90D32
:102E30008091B4029091B502892B09F073C0D093B0
:102E4000B502C093B4028091A90D813081F582E86A
:102E50009DE00E943E0F8BE89DE00E943E0F84E9BA
:102E60009DE00E943E0F8DE99DE00E943E0F89E7A4
:102E70009DE00E943E0F80E79DE00E943E0F87E6A6
:102E80009DE00E943E0F8EE59DE00E943E0F85E58D
:102E90009DE00E943E0F89E79DE09093540D809342
:102EA000530D80E79DE09093520D8093510D8091DA
:102EB000A70D8F5F8093A70D8E899091A60D98170F
:102EC00010F48093A60DF9E08F9FC0011124BE017C
:102ED0006E5F7F4F8E57924F0E94BE0D0F900FBEB8
:102EE0008091A80D882351F0E091B402F091B502D1
:102EF00096898E89981710F40E944C0F81E004C0C7
:102F0000C6010E947B148FEFDF91CF911F910F912B
:102F1000FF90EF90DF90CF90BF90AF909F908F90F9
:102F20007F9008958091A80D8111C1CFE091B402E6
:102F3000F091B5029E898689981708F4B8CFD0938E
:102F4000B502C093B402B3CF0E94AF121895789423
:102F500084B5826084BD84B5816084BD85B582609E
:102F600085BD85B5816085BD80916E00816080934F
:102F70006E001092810080918100826080938100B8
:102F800080918100816080938100809180008160C8
:102F9000809380008091B10084608093B100809123
:102FA000B00081608093B000809191008260809336
:102FB00091008091910081608093910080919000B8
:102FC0008160809390008091A10082608093A10035
:102FD0008091A10081608093A1008091A000816018
:102FE0008093A000809121018260809321018091D3
:102FF0002101816080932101809120018160809373
:10300000200180917A00846080937A0080917A0018
:10301000826080937A0080917A00816080937A0048
:1030200080917A00806880937A001092C10020918C
:103030001102309112028FEF91E2821B930B909359
:103040000E0280930D020E94AE0A04EA1CE020E00A
:1030500040EC50E066EA72E087E496E10E94931645
:10306000813009F0B5C00FB6F8940F928091AF0C83
:103070009091B00C892B09F04FC087E99CE00E9429
:103080003E0F8EE89CE00E943E0F87E99CE0909303
:103090008D0C80938C0C8EE89CE090938B0C80932D
:1030A0008A0C81E590E00E947516EC01009781F191
:1030B0004F96998388838AE08B8F85E08C8F0FB63B
:1030C000F8940F92888199812B8D4C8DBC01249F9F
:1030D000600D711D11247D836C831A8E9B838A83FE
:1030E0002150330B429FB001439F700D1124860F76
:1030F000971F9F838E838FEF8D8F8E8FCE010896C3
:103100000E943E0FCE0141960E943E0F0F900FBECF
:10311000D093B00CC093AF0C0F900FBE8091AF0C4A
:103120009091B00C892B09F453C000EA1CE023E015
:1031300045E550E06BEA72E08CE894E10E9493165A
:10314000813009F045C0F8942FEF3FEF3093A30C86
:103150002093A20C8093A80D1092B20C1092B10C87
:10316000A89588E190EC0FB6F894A895809360003C
:103170000FBE90936000A091B402B091B502CD91C2
:10318000CDBFDD91DEBFFF91EF91DF91CF91BF9178
:10319000AF919F918F917F916F915F914F913F91EF
:1031A0002F911F910F91FF90EF90DF90CF90BF90E4
:1031B000AF909F908F907F906F905F904F903F90D7
:1031C0002F901F900F900BBE0F900FBE0F90089581
:1031D00080910C020E94AE0A0E944F02FDCFE4EBE8
:1031E000FCE01382128288EE93E0A0E0B0E08483DA
:1031F0009583A683B78387E192E09183808385ECF2
:1032000090E09587848784EC90E09787868780ECB0
:1032100090E0918B808B81EC90E0938B828B82ECA1
:1032200090E0958B848B86EC90E0978B868B118E4B
:10323000128E138E148E08950F931F93CF93DF93E6
:103240008230910510F482E090E0E091AC0DF091B5
:10325000AD0D30E020E0B0E0A0E0309799F421150A
:10326000310509F44AC0281B390B24303105D8F543
:103270008A819B816115710589F1FB0193838283AA
:10328000FE0111C040815181028113814817590705
:10329000E0F04817590799F4109761F012960C93D3
:1032A000129713961C933296CF01DF91CF911F9105
:1032B0000F9108950093AC0D1093AD0DF4CF21152F
:1032C000310551F04217530738F0A901DB019A018B
:1032D000BD01DF01F801C1CFEF01F9CF9093AD0D32
:1032E0008093AC0DCDCFFE01E20FF31F819391933C
:1032F0002250310939832883D7CF2091AA0D3091EC
:10330000AB0D232B41F420910F023091100230932A
:10331000AB0D2093AA0D20910D0230910E022115C4
:10332000310541F42DB73EB7409111025091120280
:10333000241B350BE091AA0DF091AB0DE217F307BA
:10334000A0F42E1B3F0B2817390778F0AC014E5F15
:103350005F4F2417350748F04E0F5F1F5093AB0D9A
:103360004093AA0D819391939FCFF0E0E0E09CCF32
:10337000CF93DF930097E9F0FC013297138212821A
:10338000A091AC0DB091AD0DED0130E020E01097B3
:10339000A1F420813181820F931F2091AA0D3091D9
:1033A000AB0D2817390709F061C0F093AB0DE0931E
:1033B000AA0DDF91CF910895EA01CE17DF07E8F556
:1033C0004A815B819E0141155105B1F7E901FB83FB
:1033D000EA8349915991C40FD51FEC17FD0761F499
:1033E000808191810296840F951FE90199838883DA
:1033F000828193819B838A83F0E0E0E012968D9135
:103400009C9113970097B9F52D913C911197CD019F
:103410000296820F931F2091AA0D3091AB0D2817B1
:10342000390739F6309751F51092AD0D1092AC0D69
:10343000B093AB0DA093AA0DBCCFD383C2834081C0
:103440005181840F951FC817D90761F44E5F5F4FF4
:1034500088819981480F591F518340838A819B81BC
:10346000938382832115310509F0B0CFF093AD0D20
:10347000E093AC0D9ECFFD01DC01C0CF1382128220
:10348000D7CF052E97FB1EF400940E94581A57FDC3
:1034900007D00E946B1A07FC03D04EF40C94581A04
:1034A00050954095309521953F4F4F4F5F4F089570
:1034B00090958095709561957F4F8F4F9F4F0895A0
:1034C0000E948D1AA59F900DB49F900DA49F800D12
:1034D000911D11240895A1E21A2EAA1BBB1BFD0108
:1034E0000DC0AA1FBB1FEE1FFF1FA217B307E407E3
:1034F000F50720F0A21BB30BE40BF50B661F771F3B
:10350000881F991F1A9469F760957095809590951A
:103510009B01AC01BD01CF010895A29FB001B39FF3
:10352000C001A39F700D811D1124911DB29F700DCC
:10353000811D1124911D08955058BB27AA270E9470
:10354000B41A0C942E1C0E94201C38F00E94271CD8
:1035500020F039F49F3F19F426F40C941D1C0EF44E
:10356000E095E7FB0C94171CE92F0E943F1C58F3D1
:10357000BA17620773078407950720F079F4A6F558
:103580000C94611C0EF4E0950B2EBA2FA02D0B01AC
:10359000B90190010C01CA01A0011124FF27591B98
:1035A00099F0593F50F4503E68F11A16F040A22F9E
:1035B000232F342F4427585FF3CF4695379527950F
:1035C000A795F0405395C9F77EF41F16BA0B620B0E
:1035D000730B840BBAF09150A1F0FF0FBB1F661F55
:1035E000771F881FC2F70EC0BA0F621F731F841F98
:1035F00048F4879577956795B795F7959E3F08F0BE
:10360000B0CF9395880F08F09927EE0F979587957F
:1036100008950E94F31B08F481E008950E94221B84
:103620000C942E1C0E94271C58F00E94201C40F075
:1036300029F45F3F29F00C94171C51110C94621C63
:103640000C941D1C0E943F1C68F39923B1F3552371
:1036500091F3951B550BBB27AA27621773078407A5
:1036600038F09F5F5F4F220F331F441FAA1FA9F33B
:1036700035D00E2E3AF0E0E832D091505040E69529
:10368000001CCAF72BD0FE2F29D0660F771F881F8A
:10369000BB1F261737074807AB07B0E809F0BB0B7D
:1036A000802DBF01FF2793585F4F3AF09E3F510591
:1036B00078F00C94171C0C94621C5F3FE4F3983E66
:1036C000D4F3869577956795B795F7959F5FC9F77A
:1036D000880F911D9695879597F90895E1E0660FFB
:1036E000771F881FBB1F621773078407BA0720F074
:1036F000621B730B840BBA0BEE1F88F7E0950895DD
:103700000E94871B6894B1110C94621C08950E945A
:10371000471C88F09F5798F0B92F9927B751B0F000
:10372000E1F0660F771F881F991F1AF0BA95C9F745
:1037300014C0B13091F00E94611CB1E008950C9466
:10374000611C672F782F8827B85F39F0B93FCCF319
:10375000869577956795B395D9F73EF490958095C2
:10376000709561957F4F8F4F9F4F0895E89409C0E2
:1037700097FB3EF490958095709561957F4F8F4FA4
:103780009F4F9923A9F0F92F96E9BB279395F695BA
:10379000879577956795B795F111F8CFFAF4BB0F38
:1037A00011F460FF1BC06F5F7F4F8F4F9F4F16C09C
:1037B000882311F096E911C0772321F09EE8872F26
:1037C000762F05C0662371F096E8862F70E060E0E2
:1037D0002AF09A95660F771F881FDAF7880F96955B
:1037E000879597F90895990F0008550FAA0BE0E8FF
:1037F000FEEF16161706E807F907C0F012161306B3
:10380000E407F50798F0621B730B840B950B39F4F2
:103810000A2661F0232B242B252B21F408950A2658
:1038200009F4A140A6958FEF811D811D089597F998
:103830009F6780E870E060E008959FEF80EC089556
:1038400000240A941616170618060906089500247F
:103850000A9412161306140605060895092E0394F9
:10386000000C11F4882352F0BB0F40F4BF2B11F46D
:1038700060FF04C06F5F7F4F8F4F9F4F089557FDCC
:103880009058440F551F59F05F3F71F04795880FCE
:1038900097FB991F61F09F3F79F087950895121665
:1038A00013061406551FF2CF4695F1DF08C0161611
:1038B00017061806991FF1CF8695710561050894C2
:1038C0000895E894BB2766277727CB0197F90895D9
:1038D0000E94F31B08F48FEF08950E94801C0C9443
:1038E0002E1C0E94201C38F00E94271C20F09523DB
:1038F00011F00C94171C0C941D1C11240C94621CC8
:103900000E943F1C70F3959FC1F3950F50E0551F27
:10391000629FF001729FBB27F00DB11D639FAA2724
:10392000F00DB11DAA1F649F6627B00DA11D661F73
:10393000829F2227B00DA11D621F739FB00DA11D94
:10394000621F839FA00D611D221F749F3327A00D4E
:10395000611D231F849F600D211D822F762F6A2FEA
:1039600011249F5750409AF0F1F088234AF0EE0F4F
:10397000FF1FBB1F661F771F881F91505040A9F77C
:103980009E3F510580F00C94171C0C94621C5F3F05
:10399000E4F3983ED4F3869577956795B795F795B8
:1039A000E7959F5FC1F7FE2B880F911D9695879530
:1039B00097F908950E94F31B880B990B089597FBC4
:1039C000072E16F4009407D077FD09D00E94FC1C46
:1039D00007FC05D03EF4909581959F4F0895709512
:1039E00061957F4F0895EE0FFF1F0024001C0BBE52
:1039F0000790F691E02D0994AA1BBB1B51E107C06B
:103A0000AA1FBB1FA617B70710F0A61BB70B881F6E
:103A1000991F5A95A9F780959095BC01CD010895FD
:103A2000FB01DC0102C001900D9241505040D8F7DB
:103A30000895DC0101C06D9341505040E0F70895B6
:103A4000CF93DF93CDB7DEB72E970FB6F894DEBFD6
:103A50000FBECDBF85E08C838B899C899A83898337
:103A6000AE01495E5F4F6D897E89CE0101960E944D
:103A7000EC1E2E960FB6F894DEBF0FBECDBFDF91C1
:103A8000CF91089520FD09C0FC0123FD05C022FF50
:103A900002C07383628351834083089544FD17C03D
:103AA00046FD1DC0DB01FC01AA0FBB1FEE1FFF1F5F
:103AB0001094D1F76A0F7B1F8E1F9F1F660F771F11
:103AC000881F991F620F711D811D911D089533E09C
:103AD000660F771F881F991F3150D1F7F3CF34E05D
:103AE000F7CF0F931F93CF93DF938C01C8010E94F0
:103AF0001920EC0197FD08C00E940520892BB1F721
:103B0000B801CE010E945520CE01DF91CF911F91C7
:103B10000F9108958F929F92AF92BF92EF92FF9272
:103B20000F931F93CF93DF938C01D62F7A01B22E80
:103B30000E9419209C0133272B32310529F02D32A8
:103B40003105A9F46894B7F8D15061F480E0DF91B1
:103B5000CF911F910F91FF90EF90BF90AF909F90EA
:103B60008F900895C8010E94192097FDEFCFCB2DAB
:103B7000CD7F2B2D2073F9F48033E9F4AA24AA9485
:103B8000AD0E89F0C8010E94192097FD0CC0282FA6
:103B90002F7D283561F4C264D25029F0C8010E94FB
:103BA000192097FF08C0812C912C54011BC0B6FE30
:103BB0002BC0C260DA2D812C912C540120ED280FEE
:103BC000283028F1C4FD09C02A3008F1C6FF05C01D
:103BD0002F7D3FEE320F3630C8F0B8010E945520DD
:103BE000C1FFB4CFC7FF08C0B094A0949094809454
:103BF000811C911CA11CB11C2C2FB501A401C70173
:103C00000E94421D81E0A3CFC261D4CF27504C2F28
:103C1000C501B4010E944E1D4B015C01C260D15030
:103C200009F3C8010E94192097FFC8CFD9CF7F920E
:103C30008F929F92AF92BF92CF92DF92EF92FF92BC
:103C40000F931F93CF93DF93CDB7DEB7A0970FB637
:103C5000F894DEBF0FBECDBF5C01962E7A01CE0177
:103C600001966C0180E2F60111928A95E9F7F5015F
:103C7000B381890130E020E0712C812CA0E041E08B
:103C800050E0F801B3FD8591B3FF8191982F8F012A
:103C9000811117C010E000E0C801A0960FB6F8949B
:103CA000DEBF0FBECDBFDF91CF911F910F91FF906F
:103CB000EF90DF90CF90BF90AF909F908F907F90CC
:103CC00008958E3519F42115310541F1A217130617
:103CD0004CF48D3549F18D3229F4811006C08824C9
:103CE00083941DC0882009F464C0E92FE695E69509
:103CF000E695EC0DFD2DF11D892F8770BA0101C0ED
:103D0000660F8A95EAF78081682B6083791651F0F7
:103D1000971510F49F5FE9CF9150E7CFA1E02F5F97
:103D20003F4FAFCF812CFBCF882019F08E8180626E
:103D30008E83AA2359F0F6019E012F5D3F4F8081AB
:103D4000809580833196E217F307C9F7882483941E
:103D5000C5010E94192097FD16C0E82FE695E6954B
:103D6000E695EC0DFD2DF11D208130E0AC01477092
:103D7000552702C0359527954A95E2F720FD06C0E4
:103D8000B5010E945520882069F084CFE114F10428
:103D900029F0F7018083C70101967C019A94812C58
:103DA0009110D6CFE114F10409F476CFF701108217
:103DB00073CFE82FE695E695E695EC0DFD2DF11D08
:103DC000982F9770BA0101C0660F9A95EAF7908113
:103DD000692B6083782EA3CF5F926F927F928F9230
:103DE0009F92AF92BF92CF92DF92EF92FF920F938A
:103DF0001F93CF93DF936C01EB015A01FC011782F3
:103E00001682512CF601E380FE01E3FC8591E3FE6E
:103E10008191182FEF018823E9F090E00E9405209E
:103E2000892B21F0C6010E94711DECCF153241F49F
:103E3000FE01E3FC1591E3FE1191EF01153269F4E7
:103E4000C6010E94192097FD8EC01817D9F2B6013D
:103E50000E945520852D90E08AC000E01A3231F48E
:103E6000E3FC1591E3FE1191EF0101E0F12C20ED4F
:103E7000210F2A3048F101FF37C0FF2059F31836CF
:103E8000B1F11C3609F43DC0112321F3612F70E01C
:103E900084EE90E00E940E20892BE1F2912C812C7F
:103EA00000FD06C0F50180809180C50102965C018D
:103EB0001E3679F5F6014681578170E060E0202FCB
:103EC000C4010E94421D9ECF02606F2D70E090E001
:103ED00080E040E20E944E1DF62EFE01E3FC1591AB
:103EE000E3FE1191EF01C3CFFF24FA94C8CFFE0186
:103EF000E3FC1591E3FE1191EF01183609F0C4CFF0
:103F000008600460FE01E3FC1591E3FE1191EF01EE
:103F1000BBCF1336C1F401FD02C0FF24F394C601E8
:103F20000E94192097FD1FC08114910429F0F4010B
:103F30008083C40101964C01FA94F110F0CF00FD8A
:103F400061CF53945FCF1B3511F59E01A4016F2DF6
:103F5000C6010E94171EEC01892B89F7F6018381A7
:103F6000807309F477CF8FEF9FEF511073CFDF91FC
:103F7000CF911F910F91FF90EF90DF90CF90BF9066
:103F8000AF909F908F907F906F905F900895C60143
:103F90000E94711D97FDE7CF1F36A9F130F414364A
:103FA00041F0193639F0006405C01337B9F0153700
:103FB000D1F70062202FA4016F2DC6010E948A1D37
:103FC0008111BDCFCBCF8114910429F0F40160821F
:103FD000C40101964C01FA94FF2071F0C6010E94C1
:103FE00019203C0197FD08C00E940520892B59F338
:103FF000B601C3010E9455208114910409F49FCF9A
:10400000F40110829CCF0061D5CF91110C946D20EA
:10401000803219F089508550C8F70895FC01059049
:10402000061621F00020D9F7C00108953197CF017D
:104030000895CF93DF93EC012B8120FF1AC026FF58
:104040000CC02F7B2B838E819F8101969F838E8353
:104050008A8190E0DF91CF91089522FF18C0E88116
:10406000F9818081082E000C990B009729F42062B9
:104070002B838FEF9FEFEECF3196F983E8832E816C
:104080003F812F5F3F4F3F832E839927E3CFEA8500
:10409000FB85099597FFF3CF2B81019621F080E2F4
:1040A000822B8B83E6CF80E1FBCFFB01238120FFB6
:1040B00011C026FD0FC08F3F980771F082832F7DBE
:1040C0002064238326813781215031093783268359
:1040D000992708958FEF9FEF0895992788270895CE
:0440E000F894FFCF82
:1040E400320000005A0000005A005A00030000AEDB
:1040F4000D800000000000DD01470174012F02A5BE
:1041040001830197010D0A006E616E00696E6600FD
:104114006F766600416E676C65476574004178652B
:104124005F31004178655F32004178655F3300415B
:1041340078655F34004178655F35004D656E746F56
:104144007220526F626F7469632041726D00456E14
:1041540074657220616E676C657320666F723A00D5
:10416400783120783220783320783420783520470D
:10417400726970002564202564202564202564204C
:1041840025642025640049444C4500546D72205335
:04419400766300004E
:00000001FF
